:100000000C9421010C9449010C9449010C94490170
:100010000C9449010C9449010C9449010C94490138
:100020000C9449010C9449010C9449010C94490128
:100030000C9449010C9449010C9449010C94490118
:100040000C94E0090C9449010C94500A0C942A0A6F
:100050000C9449010C9449010C9449010C944901F8
:100060000C9449010C94490107634236B79BD8A709
:100070001A39685618AEBAAB558C1D3CB7CC5763CD
:10008000BD6DEDFD753EF6177231BF000000803F7B
:1000900008000000BE922449123EABAAAA2ABECD97
:1000A000CCCC4C3E00000080BEABAAAAAA3E000009
:1000B0000000BF000000803F000000000008417801
:1000C000D3BB4387D1133D190E3CC3BD4282AD2B38
:1000D0003E68EC8276BED98FE1A93E4C80EFFFBE30
:1000E00001C4FF7F3F000000000000407A10F35A77
:1000F00000A0724E18090010A5D4E80000E8764868
:10010000170000E40B54020000CA9A3B000000E113
:10011000F505000080969800000040420F000000A6
:10012000A08601000000102700000000E803000086
:1001300000006400000000000A0000000000010050
:10014000000000002C76D888DC674F0823DFC1DF71
:10015000AE59E1B1B796E5E3E453C63AE651997674
:1001600096E8E6C28426EB898C9B62ED407C6FFCAE
:10017000EFBC9C9F40F2BAA56FA5F490055A2AF7F0
:100180005C936B6CF9676DC11BFCE0E40D47FEF5F9
:1001900020E6B500D0ED902E030094357705008061
:1001A000841E080000204E0A000000C80C333333C0
:1001B000330F986E12831141EF8D2114893BE65560
:1001C00016CFFEE6DB18D1844B381BF77C1D901D43
:1001D000A4BBE424203284725E228100C9F124ECA5
:1001E000A1E53D2700000000240027002A000000B0
:1001F00000080002010000030407000000000000E6
:10020000000000000000230026002900000000007C
:10021000250028002B000404040404040404020242
:100220000202020203030303030301020408102075
:100230004080010204081020010204081020D40AA2
:10024000990F11241FBECFEFD8E0DEBFCDBF11E064
:10025000A0E0B1E0E8E9F0E302C005900D92A83516
:10026000B107D9F722E0A8E5B1E001C01D92A5369B
:10027000B207E1F711E0C0E2D1E004C02197FE012E
:100280000E943816CF31D107C9F70E94D50B0C94C4
:100290003F180C9400008F929F92AF92BF92CF9222
:1002A000DF92EF92FF92CF934B01AA24BB24C82D7B
:1002B000C52ED62EE72EFF24BC2DA42F2091090297
:1002C000222361F0829E40011124C92D2C9D6001E2
:1002D0001124BD2D249FF0011124AF2FE0910F02B6
:1002E000E0900A02F0900B0230910C02E31323C05D
:1002F0009C01220F331F820F931F8E0D9F1DE091D3
:100300000C02E80FF92FF11DC083E0910D02E80FF8
:10031000F92FF11DB08320910E02820F911DFC0177
:10032000A083CF91FF90EF90DF90CF90BF90AF90E0
:100330009F908F900895880F991F880F991F8E0D99
:100340009F1D472F552766277727222349F030E046
:10035000249F7001259FF00C349FF00C11244F2D29
:10036000E80FF92FF11D4083CACF833081F028F4C4
:10037000813099F08230A9F008958730A9F0883053
:10038000C9F08430B1F4809180008F7D03C08091EA
:1003900080008F7780938000089584B58F7784BD27
:1003A000089584B58F7DFBCF8091B0008F778093C7
:1003B000B00008958091B0008F7DF9CF1F93CF9347
:1003C000DF93282F30E0F901E251FE4F8491F901CB
:1003D000E65DFD4FD491F901EA5EFD4FC491CC2357
:1003E000A9F0162F81110E94B501EC2FF0E0EE0F5D
:1003F000FF1FE45FFD4FA591B4918FB7F894EC9186
:10040000111108C0D095DE23DC938FBFDF91CF910F
:100410001F910895DE2BF8CFCF93DF9390E0FC017E
:10042000E65DFD4F24918A5E9D4FFC0184918823F7
:10043000C9F090E0880F991FFC01EC51FE4FA59187
:10044000B491FC01E45FFD4FC591D49161110DC0E1
:100450009FB7F8948C91209582238C9388812823D0
:1004600028839FBFDF91CF910895623051F49FB7E9
:10047000F8943C91822F809583238C93E8812E2BD6
:10048000EFCF8FB7F894EC912E2B2C938FBFEACF40
:100490003FB7F89480915C0190915D01A0915E015D
:1004A000B0915F0126B5A89B05C02F3F19F00196BA
:1004B000A11DB11D3FBFBA2FA92F982F8827BC01BE
:1004C000CD01620F711D811D911D42E0660F771FE6
:1004D000881F991F4A95D1F708950F931F93CF93C3
:1004E000DF93CDB7DEB729970FB6F894DEBF0FBE06
:1004F000CDBF0E944802009110021091110220917C
:10050000120230911302601771078207930740F4BB
:100510006093100270931102809312029093130261
:1005200000911002109111022091120230911302D9
:10053000601B710B820B930B6C327140810591052E
:10054000C0F2F89480910502909106029A83898303
:10055000E0910A02F0910B02DF01119680818987F8
:1005600090910102E0911402F0911502809116021F
:10057000992309F445C09081982B988790818095A4
:1005800089238F838F818C8388E08B8358856F814B
:1005900049853B812C8189819A81508347FD252F94
:1005A0003A952083262F39F0441F00C00000608355
:1005B000000000C0F2CF38E04D9160830000019749
:1005C00061F7F0931502E093140249873B832C8373
:1005D0009A83898378940E944802609310027093F2
:1005E0001102809312029093130229960FB6F89489
:1005F000DEBF0FBECDBFDF91CF911F910F91089548
:100600009081982B98879081809589238F838F8103
:100610008E8388E08D8358856F8149853D812E8149
:1006200089819A81508347FD252F00C000C0208317
:1006300000C000C000C000C000C060830000262FC2
:100640003A9541F0441F000000C000C000C000C047
:1006500000C0E8CF38E04D9100C0608300C0019732
:1006600009F7F0931502E093140249873D832E8326
:10067000AFCF8F929F92AF92BF92CF92DF92EF92C5
:10068000FF926B017C010E9448024B015C01C11486
:10069000D104E104F104B9F00E9448026819790913
:1006A0008A099B09683E73408105910580F321E02A
:1006B000C21AD108E108F10888EE880E83E0981E7E
:1006C000A11CB11CE4CFFF90EF90DF90CF90BF90C2
:1006D000AF909F908F9008950895AF92BF92CF9260
:1006E000DF92EF92FF920F931F93CF93DF936C01F2
:1006F0007B018B01040F151FEB015E01AE18BF08D3
:10070000C017D10759F06991D601ED91FC91019084
:10071000F081E02DC6010995892B79F7C501DF919C
:10072000CF911F910F91FF90EF90DF90CF90BF90EE
:10073000AF90089542E050E064E371E084E691E018
:100740000C946D03FC01538D448D252F30E0842FD4
:1007500090E0821B930B541710F0CF9608950197E9
:100760000895FC01918D828D981761F0A28DAE0FD6
:10077000BF2FB11D5D968C91928D9F5F9F73928F5D
:1007800090E008958FEF9FEF0895FC01918D828D89
:10079000981731F0828DE80FF11D858D90E0089556
:1007A0008FEF9FEF0895FC01918D228D892F90E0AE
:1007B000805C9F4F821B91098F739927089584E66F
:1007C00091E00E94D30321E0892B09F420E0822FDD
:1007D000089580E090E0892B29F00E94DF038111C9
:1007E0000C9400000895FC01A48DA80FB92FB11D31
:1007F000A35ABF4F2C91848D90E001968F73992757
:10080000848FA689B7892C93A089B1898C91837034
:1008100080648C93938D848D981306C00288F3892D
:10082000E02D80818F7D80830895EF92FF920F935A
:100830001F93CF93DF93EC0181E0888F9B8D8C8D8C
:1008400098131AC0E889F989808185FF15C09FB780
:10085000F894EE89FF896083E889F9898081837043
:10086000806480839FBF81E090E0DF91CF911F91F2
:100870000F91FF90EF900895F62E0B8D10E00F5F13
:100880001F4F0F731127E02E8C8D8E110CC00FB6E9
:1008900007FCFACFE889F989808185FFF5CFCE0181
:1008A0000E94F303F1CFEB8DEC0FFD2FF11DE35A06
:1008B000FF4FF0829FB7F8940B8FEA89FB89808104
:1008C0008062CFCFCF93DF93EC01888D8823B9F07E
:1008D000AA89BB89E889F9898C9185FD03C080814B
:1008E00086FD0DC00FB607FCF7CF8C9185FFF2CFC8
:1008F000808185FFEDCFCE010E94F303E9CFDF9128
:10090000CF910895FC0183898B3051F480E492E407
:10091000AFE0B0E0FB0184A395A3A6A3B7A308951D
:1009200080E894E8AEE1B0E0F5CFCF92DF92EF92AD
:10093000FF92CF93DF93DC011796CC911797D0E00D
:100940006111DC2F18962C91189730E0220F331F7D
:100950002E5F3D4F50E040E0F90185919491FC01FC
:10096000F080BA0190E080E0EF2DEC23ED1310C091
:100970004F5F5F4F1D96CD90DD90ED90FC905097AE
:100980006C157D058E059F0538F36FEF7FEFCB016A
:10099000DF91CF91FF90EF90DF90CF9008958F92ED
:1009A0009F92AF92BF92CF92DF92EF92FF920F93FE
:1009B0001F93CF93DF93CDB7DEB7C054D1400FB6AE
:1009C000F894DEBF0FBECDBF2FB7F8944091600101
:1009D0005091610160916201709163012FBFFC0130
:1009E00001851285238534856A017B01C01AD10AED
:1009F000E20AF30A97018601003D174021053105FF
:100A0000B0F4FC018189C05CDE4F0FB6F894DEBF04
:100A10000FBECDBFDF91CF911F910F91FF90EF904F
:100A2000DF90CF90BF90AF909F908F9008958C01F2
:100A3000FC01418752876387748714821382128274
:100A40001182108262E085810E940C0261E070E0F8
:100A500080E090E00E94390361E0F80185810E9406
:100A60000C0260E0F80185810E94DE01F8018681B8
:100A70008551823028F58BE291E10197F1F762E030
:100A8000F80185810E940C02F801828990E0823091
:100A9000910538F0880F991F880F991F05970197C6
:100AA000F1F7F89460E0C8010E9495046F3F7F4F12
:100AB0008F4F9F4F61F4F801118A789480E0A3CFA3
:100AC00064E170E080E090E00E943903D8CF61E0FB
:100AD000C8010E9495046F3F7F4F8F4F9F4F59F37E
:100AE000CE0101967C015E019FEBA91A9EEFB90A27
:100AF000670160E0C8010E949504F601608371837C
:100B00008283938361E0C8010E949504F6016483A7
:100B1000758386839783F8E0CF0ED11CCA14DB045B
:100B200041F7789430E020E0F70180809180A28046
:100B3000B3804481558166817781FFEF8F169F06D0
:100B4000AF06BF0631F04F3F8FEF580768077807B1
:100B500019F4F801118AB2CFF90183E0F595E79510
:100B60008A95E1F7E00FF11F8081880F84169506C2
:100B7000A606B706F0F080832F5F3F4FF8E0EF0E38
:100B8000F11C2832310581F6F801448120818181F0
:100B9000280F3327331F8281280F311D8381820F55
:100BA000932F911D99274817190699F681E0818B9B
:100BB0002ACF8160E0CF0895CF92DF92EF92FF922B
:100BC000CF93DF936B017C01C1E2D0E0219780914C
:100BD000030290910402C817D90728F4B701A601AF
:100BE000CE010E944B0180910A0290910B02892B49
:100BF00011F00E946D026EE170E080E090E00E94D2
:100C00003903209719F7DF91CF91FF90EF90DF9094
:100C1000CF9008950895CF93DF93EC018881998157
:100C2000009711F00E94DA16198218821D821C8228
:100C30001B821A82DF91CF910895FC0180819181FE
:100C4000009711F00C94DA1608950C94DA160C94AF
:100C5000DA16CF92DF92EF92FF920F931F93CF930A
:100C6000DF93EB01FB01349620E2DF011D922A9510
:100C7000E9F744E250E060E070E0488359836A831A
:100C80007B83FC0145815681678170854C835D8340
:100C90006E837F834CE050E060E070E048875987C6
:100CA0006A877B872FB7F89440916001509161016A
:100CB00060916201709163012FBF488B598B6A8BE1
:100CC0007B8B03811481C8010E94CF04882349F0E3
:100CD000F80186818B3028F08D3040F085518230CC
:100CE00070F160E070E080EC9FE71BC0618170E014
:100CF00090E080E00E9417122DEC3CEC4CEC5DE3A0
:100D00000E9452126B017C01F801608170E090E05A
:100D100080E00E9417129B01AC01C701B6010E943E
:100D200098136C8B7D8B8E8B9F8B81E0DF91CF91A5
:100D30001F910F91FF90EF90DF90CF900895608109
:100D4000718176276727762790E080E00E94151250
:100D50002DEC3CEC4CEC5DE30E945212E2CF8F9202
:100D60009F92AF92BF92EF92FF921F93CF93DF9328
:100D7000EB01FB01349620E2DF011D922A95E9F791
:100D800044E250E060E070E0488359836A837B83EB
:100D9000FC0145815681678170854C835D836E833C
:100DA0007F834DE050E060E070E0488759876A87B4
:100DB0007B872FB7F8944091600150916101609159
:100DC0006201709163012FBF488B598B6A8B7B8BBB
:100DD000E380F480C7010E94CF04882341F0F7012B
:100DE00086818C3009F455C038F48B30E1F060E036
:100DF00070E080EC9FE73EC085518230C0F71281E1
:100E0000612F70E0762F662766277F778381682BB6
:100E100090E080E00E9415122DEC3CEC4CEC5DE380
:100E20000E94521251C0628170E090E080E00E9406
:100E300015124B015C01F701138117FF0AC0AC01C9
:100E40009B0160E070E080E89FEB0E9497134B01EC
:100E50005C011F70612F70E090E080E00E9417122B
:100E60002DEC3CEC4CEC5DE30E945212A501940188
:100E70000E9498136C8B7D8B8E8B9F8B81E0DF9112
:100E8000CF911F91FF90EF90BF90AF909F908F9068
:100E900008951281612F70E090E080E00E941512A9
:100EA0004B015C01F70163816F7070E090E080E0BE
:100EB0000E9417122DEC3CEC4CEC5DE30E945212A8
:100EC000A50194010E94981317FFD4CF9058D2CF58
:100ED0000F931F93CF93DF938C01EB01FC01808173
:100EE00091810097E1F06881798161157105A9F020
:100EF000428153812C813D814217530770F00E943B
:100F000029188C819D81F801958384831D821C8220
:100F1000DF91CF911F910F9108950E94DA16888179
:100F20009981F801918380838A819B819383828355
:100F30008C819D8195838483198218821B821A82F9
:100F4000E5CF0F931F93462F90E0FC01E65DFD4F28
:100F50006491FC01EA5EFD4FE4914111462FF0E0FF
:100F6000EE0FFF1FEE5FFD4F8591949100E412E4B8
:100F70002FE030E00E94820A61157105810591051C
:100F800029F06F5F7F4F8F4F9F4F9F701F910F9181
:100F900008950F931F93CF93DF93EC01888199817C
:100FA000009759F02A813B812617370730F081E0FE
:100FB000DF91CF911F910F9108958B016F5F7F4F4C
:100FC0000E946317009759F0998388831B830A83D3
:100FD0002C813D81232B59F7FC011082E8CF80E062
:100FE000E7CF0F931F93CF93DF93EC010C811D810B
:100FF0000F5F1F4FB8010E94C907882391F0288115
:1010000039818C819D8167E371E0820F931F0E947B
:1010100029181D830C83CE01DF91CF911F910F9171
:101020000895CE010E940B06F6CFEF92FF920F9328
:101030001F93CF93DF93EC01FB01E080F180E1147B
:10104000F10411F10481158101151105A9F08C81BC
:101050009D81080F191FB801CE010E94C90788237E
:1010600099F0288139818C819D81B701820F931F6E
:101070000E9429181D830C83CE01DF91CF911F910F
:101080000F91FF90EF900895CE010E940B06F4CFD0
:10109000EF92FF920F931F93CF93DF93EC017B01AD
:1010A0008A01BA010E94C90781110BC0CE010E94BA
:1010B0000B06CE01DF91CF911F910F91FF90EF9022
:1010C00008951D830C83B701888199810E94291896
:1010D000F0CFFB0101900020E9F73197AF01461BEB
:1010E000570B0C944808EF92FF920F931F93CF93E6
:1010F000DF93CDB7DEB7A1970FB6F894DEBF0FBE72
:10110000CDBF7C01CB01BA01F7011182108213829D
:101110001282158214828E010F5F1F4F22E044E07D
:101120000E94C00F009789F0BC01C7010E946908A6
:10113000A1960FB6F894DEBF0FBECDBFDF91CF9161
:101140001F910F91FF90EF900895C7010E940B0629
:10115000EFCFCF93DF93EB01FC0183894BE050E0AD
:101160006FE371E08C30C1F058F44BE050E069E37C
:1011700071E08B3089F04BE050E061E571E00CC02C
:101180004BE050E065E471E0853131F04BE050E038
:101190006BE471E0863179F7CE010E9430181B862E
:1011A000DF91CF9108950F931F93CF93DF938C011D
:1011B000EB0188E2DB011D928A95E9F7F801838152
:1011C00094810E94A90881E090E0A0E0B0E08C87C3
:1011D0009D87AE87BF87F80185819681A781B085FD
:1011E000888B998BAA8BBB8B8CE090E0A0E0B0E061
:1011F0008C8B9D8BAE8BBF8BBE01838194810E94B3
:101200008204D8011396ED91FC9183898C3009F406
:1012100041C078F48B3009F1188E198E1A8E1B8E0E
:101220001C8E1D8E1E8E1F8E18A219A21AA21BA222
:101230002CC08551823080F780E090E0A8ECB2E4C9
:10124000888F998FAA8FBB8F1C8E1D8E1E8E1F8E2E
:101250008DEC9CECACECBDE314C080E090E0A0EA27
:10126000B2E4888F998FAA8FBB8F80E090E0A0EACC
:10127000B1E48C8F9D8FAE8FBF8F80E090E0A0EAAD
:10128000B0E488A399A3AAA3BBA3DF91CF911F9138
:101290000F91089580E090E0AEEBB2E4E2CF0F93BF
:1012A0001F93CF93DF938C01EB0188E2DB011D924A
:1012B0008A95E9F7F801838194810E94A90881E069
:1012C00090E0A0E0B0E08C879D87AE87BF87F801F3
:1012D00085819681A781B085888B998BAA8BBB8BE2
:1012E0008DE090E0A0E0B0E08C8B9D8BAE8BBF8B4F
:1012F000BE01838194810E948204D8011396ED91EE
:10130000FC9183898C3091F178F48B30B1F0188E98
:10131000198E1A8E1B8E1C8E1D8E1E8E1F8E18A26D
:1013200019A21AA21BA21DC08531A9F1863179F735
:1013300080E090E0AAEFB2E432C080E090E0A8E460
:10134000B2E4888F998FAA8FBB8F1C8E1D8E1E8E44
:101350001F8E80E090E0A0E0B0E488A399A3AAA348
:10136000BBA3DF91CF911F910F91089580E090E092
:10137000A0E7B2E4888F998FAA8FBB8F80E090E0BE
:10138000A0EAB1EC8C8F9D8FAE8FBF8F80E090E094
:10139000A0E0BFE3E2CF80E090E0A0EAB2E4888F73
:1013A000998FAA8FBB8F80E090E0A0E2B2EC8C8F87
:1013B0009D8FAE8FBF8F8DEC9CECACECBDE3CDCFA1
:1013C0001F920F920FB60F9211242F933F938F937A
:1013D0009F93AF93BF938091600190916101A09121
:1013E0006201B091630130915B0123E0230F2D373F
:1013F00058F50196A11DB11D20935B0180936001FA
:1014000090936101A0936201B093630180915C01AC
:1014100090915D01A0915E01B0915F010196A11DC7
:10142000B11D80935C0190935D01A0935E01B09328
:101430005F01BF91AF919F918F913F912F910F903D
:101440000FBE0F901F90189526E8230F0296A11D3E
:10145000B11DD2CF1F920F920FB60F9211242F936E
:101460003F934F935F936F937F938F939F93AF932C
:10147000BF93EF93FF9384E691E00E94F303FF9103
:10148000EF91BF91AF919F918F917F916F915F91FC
:101490004F913F912F910F900FBE0F901F90189575
:1014A0001F920F920FB60F9211242F938F939F9339
:1014B000EF93FF93E0917401F09175018081E091C9
:1014C0007A01F0917B0182FD1BC0908180917D01AA
:1014D0008F5F8F7320917E01821741F0E0917D0133
:1014E000F0E0EC59FE4F958F80937D01FF91EF91D5
:1014F0009F918F912F910F900FBE0F901F90189575
:101500008081F4CFCF92DF92EF92FF920F931F93DF
:10151000E82FF92F05C0015011092109310961F1A6
:10152000908196239417B9F305C001501109210940
:10153000310911F1908196239413F7CFC12CD12C4E
:10154000E12CF12C0AC08FEFC81AD80AE80AF80A71
:101550000C151D052E053F0579F080818623841723
:1015600091F36C2D7D2D8E2D9F2D1F910F91FF904E
:10157000EF90DF90CF90089560E070E080E090E021
:101580001F910F91FF90EF90DF90CF900895FC0195
:1015900011821082138212821582148250E040E080
:1015A00066E371E00C94480810926701109266019E
:1015B00088EE93E0A0E0B0E0809368019093690129
:1015C000A0936A01B0936B018AE091E0909365016A
:1015D0008093640185EC90E0909371018093700199
:1015E00084EC90E0909373018093720180EC90E022
:1015F000909375018093740181EC90E09093770152
:101600008093760182EC90E0909379018093780149
:1016100086EC90E090937B0180937A0110927D019B
:1016200010927E0110927F01109280018BE592E072
:101630000E94C70A85E592E00E94C70A8FE492E003
:101640000E94C70A89E492E00E94C70A83E492E0FC
:101650000E94C70A8DE392E00E94C70A27E132E0A8
:101660008CE080931C028BE080931D02E6E3F2E0A5
:10167000E491E0931E02E2E2F2E0E491E0931F02C3
:1016800040E85EE360E070E040932402509325025E
:10169000609326027093270280932A028AE291E0E7
:1016A00090932C0280932B0230932F0220932E02D2
:1016B0008FEF9FEFDC018093300290933102A09373
:1016C0003202B09333024CE151E050933502409323
:1016D000340230933802209337028093390290937A
:1016E0003A02A0933B02B0933C0210920202109285
:1016F000090210921002109211021092120210921E
:10170000130281E080930F0280930C0210920D026D
:1017100092E090930E028093010280E690E0909315
:101720000602809305020E943E1690930B0280935E
:101730000A02009789F120E6FC0111922A95E9F747
:1017400080E290E0909304028093030283E090E0B3
:10175000909308028093070280910202882341F04F
:1017600061E083E00E940C0260E083E00E94DE0101
:10177000E9E1F2E0E491F0E0EE0FFF1FE45FFD4FDE
:10178000859194919093150280931402EDE2F2E01A
:10179000E491E09316020895109206021092050259
:1017A0001092040210920302D1CFCF93DF93CDB7F2
:1017B000DEB7E1970FB6F894DEBF0FBECDBF7894C9
:1017C00084B5826084BD84B5816084BD85B5826046
:1017D00085BD85B5816085BD80916E0081608093F7
:1017E0006E00109281008091810082608093810060
:1017F0008091810081608093810080918000816070
:10180000809380008091B10084608093B1008091CA
:10181000B00081608093B00080917A0084608093F2
:101820007A0080917A00826080937A0080917A00B9
:10183000816080937A0080917A00806880937A003A
:101840001092C100E0917401F091750182E08083F3
:10185000E0917001F09171011082E0917201F091BC
:1018600073018FEC808310927C01E0917801F091FC
:10187000790186E08083E0917601F09177018081A3
:1018800080618083E0917601F091770180818860AA
:101890008083E0917601F091770180818068808378
:1018A000E0917601F091770180818F7D808362E005
:1018B00080911C020E940C022FB7F8948091600165
:1018C00090916101A0916201B09163012FBF805D91
:1018D0009740A109B1098093200290932102A0931F
:1018E0002202B093230287E38093290280910702AA
:1018F0009091080297FD08C061E00E940C0260E030
:10190000809107020E94DE0181E08093020260E084
:1019100089E00E940C0261E08AE00E940C0260E013
:101920008BE00E940C0261E084E00E940C0260E007
:1019300082E00E940C0280912D028BA78AE291E046
:101940009AA789A780912E0290912F029DA78CA71C
:101950008091300290913102A0913202B091330215
:101960008EA79FA7A8ABB9ABBE016F5F7F4FCE011B
:1019700089960E944F09809136028BA78CE191E0F5
:101980009AA789A780913702909138029DA78CA7CA
:101990008091390290913A02A0913B02B0913C02B1
:1019A0008EA79FA7A8ABB9ABBE016F5F7F4FCE01DB
:1019B00089960E94D30844244A9443E0542E612C13
:1019C000712C5CE1252E51E0352E25E420937C001E
:1019D00080917A00806480937A0080917A0086FDFD
:1019E000FCCFA0917800B09179002FEF30E00E94F9
:1019F0003116A30192010E941013F22EE32E022F42
:101A0000132F10935A010093590161E088E00E945E
:101A10000C020115110509F0AAC160E088E00E94DE
:101A2000DE018091590190915A016DE371E0893C8A
:101A3000910514F066E571E089E492E00E9469087E
:101A400061E08AE00E94DE0161E070E080E090E009
:101A50000E94390360E08AE00E94DE0161E08BE0D1
:101A60000E94A107072E000C880B990B0E941712E9
:101A70002DEC3CEC48E652E40E94041420E030E0F7
:101A800040E85FE30E9498130E9476146333710567
:101A90000CF0B8C16DE371E08BE592E00E9469083B
:101AA000E7EFF1E08491E3E3F2E00491EFE1F2E0AB
:101AB0001491112309F4A9C181110E94B501E12FEC
:101AC000F0E0EE0FFF1FEE5FFD4FA591B4918C91FA
:101AD000082309F49AC16DE371E085E592E00E9464
:101AE000690861E087E00E94DE0160E086E00E9414
:101AF000DE01809136028BA73AA629A68091370293
:101B0000909138029DA78CA78091390290913A025A
:101B1000A0913B02B0913C028EA79FA7A8ABB9ABA6
:101B2000BE016F5F7F4FCE0189960E9429064D89C5
:101B30005E896F89788DCE0189960E947308BE01F7
:101B4000675D7F4F8DE392E00E946807CE01899622
:101B50000E941D0680912D028BA78AE291E09AA730
:101B600089A780912E0290912F029DA78CA780912A
:101B7000300290913102A0913202B09133028EA7CF
:101B80009FA7A8ABB9ABBE016F5F7F4FCE0189960F
:101B90000E94AF064D895E896F89788DCE01899646
:101BA0000E947308BE01675D7F4F83E492E00E944C
:101BB0006807CE0189960E941D066AE070E080E009
:101BC00090E00E94390360E082E00E94A107072EA6
:101BD000000C880B990B0E94171220E030E04AE7B6
:101BE00054E40E9404146B017C0120E030E040E4E6
:101BF00050E40E94AC142DEC3CEC4CE85FE30E94F6
:101C000052124B015C01A7019601C701B6010E9467
:101C1000521223E333E343E750E40E9452129B0144
:101C2000AC01C501B4010E9497136B017C0120E057
:101C300030E040EA50E40E9404144B015C0120E0D3
:101C400030E04AEF53E4C701B6010E9404149B013F
:101C5000AC01C501B4010E9498134B015C0120E066
:101C600030E04CE052E4C701B6010E9404149B012D
:101C7000AC01C501B4010E9497130E947614683E1E
:101C800073400CF0CFC06DE371E08FE492E00E94EE
:101C9000690861E084E00E94DE016AE070E080E0B3
:101CA00090E00E9439031AA619A61CA61BA61EA620
:101CB0001DA660915502709156026115710541F0A3
:101CC0004091590250915A02CE0189960E944808CB
:101CD000CE0189960E94F1076BE572E00E9415081B
:101CE0000E94F10769E472E00E9415080E94F10762
:101CF00063E472E00E9415080E94F1076DE372E050
:101D00000E9415080E94F1076FE472E00E94150816
:101D1000FC01448155816081718184E691E00E94DB
:101D20006D030E949A03CE0189960E941D0684E6E7
:101D300091E00E94D303181619060CF0E7C084E660
:101D400091E00E94B10380935801682F84E691E0EE
:101D50000E9415040E949A0380915801803309F073
:101D600069C060E070E0CB010E94DC05E0CF0F3F6E
:101D7000110511F461E052CEE6EFF1E08491833079
:101D800029F140F48130C1F08230D9F000381105DA
:101D90008CF743CE873031F1883061F18430B1F770
:101DA000809180008062809380008F2D9E2D909383
:101DB0008B0080938A0035CE84B5806884BDF7BCE3
:101DC00030CE84B5806284BDF8BC2BCE809180007B
:101DD0008068809380008F2D9E2D90938900809342
:101DE00088001FCE8091B00080688093B000F09290
:101DF000B30017CE8091B00080628093B000F09263
:101E0000B4000FCE66E571E047CE66E571E085E58A
:101E100092E00E94690861E086E00E94DE0160E0D5
:101E200087E065CE66E571E08FE492E00E94690884
:101E300060E030CF813329F46FEF70E080E090E014
:101E400093CF823329F460E07FEF80E090E08CCF85
:101E5000833329F460E070E08FEF90E085CF843326
:101E600009F065CF00E0B12CD12CC12C10E0F12C91
:101E7000E12C2EEF922E9B0C88248394800EAA24B2
:101E8000AA94AB0C8091030290910402E816F90623
:101E900018F58C2D8E0D863598F0402F410F50E0AF
:101EA00070E060E0BA01552744278A2D811B582B2A
:101EB000C7010E944B01FFEFEF1AFF0A1D5FE2CF3F
:101EC000492D411B50E070E060E0BA0155274427DE
:101ED000882D810F482BECCF80910A0290910B0244
:101EE000892B11F00E946D026EE170E080E090E0BD
:101EF0000E9439032FEFC21AD20A8DEFB80E0D5F80
:101F0000C11491E0D90609F0B1CF11CF68EE73E0AA
:101F100080E090E00E943903E0E0F0E0EF2B09F46C
:101F200054CD0E94DF03882309F44FCD0E940000A6
:101F30004CCD80910A0290910B020E94DA1680919A
:101F400007029091080297FD03C060E00E940C0216
:101F50008DE392E00E941D0683E492E00E941D063C
:101F600089E492E00E941D068FE492E00E941D0623
:101F700085E592E00E941D068BE592E00C941D061B
:101F8000EF920F931F93CF93DF93E80134E047FD67
:101F900034E1042E000C550B57FF03C051954195B9
:101FA0005109E32E022F242FAE010E94DE0FCE0135
:101FB000DF91CF911F910F91EF900895A9E0B0E0CC
:101FC000E4EEFFE00C9435136A01F22EB02E102FD0
:101FD000FBE3AF2EA01608F41BE31F5F012F27E0E1
:101FE000AE014F5F5F4F0E943D11BC018981982F68
:101FF0009970913009F43FC09BE2E1FC04C09E2D32
:102000009170E0FC3AC05E2D5071E82FE87083FFBC
:1020100046C084E0911101C083E0EF2DE81B8F15CD
:1020200008F0E0E0D6018E2F20E2552351F19923EC
:1020300029F0D6019C93C60101966C0196012D5F93
:102040003F4FE2FE24C08EE4D6018C9391E41196BA
:102050009C93119712968C93D9018E2F90E2811147
:102060001BC0E20FF32FF11D10828EEF9FEF299618
:10207000ECE00C9451139DE2C6CF90E2C4CF2D93B7
:1020800081508111FCCFCE0ED11CE0E0D0CF8EE686
:10209000D6018C9391E6DBCF9D938150E0CF482F02
:1020A000447082FF3DC084E0911101C083E08F1530
:1020B00010F4EF2DE81BD6018E2F20E2552309F1F5
:1020C000992329F0D6019C93C60101966C019601D3
:1020D0002D5F3F4FE2FE1BC089E4D6018C938EE456
:1020E00011968C93119786E412968C93D9018E2FBA
:1020F00090E2882309F4B5CF9D938150FACF2D93B8
:1021000081508111FCCFCE0ED11CE0E0D9CF89E601
:10211000D6018C938EE611968C93119786E6E4CFC8
:102120009B0177FF02C030E020E0A1E0B0E0911118
:1021300002C0B0E0A0E0F9013196AE0FBF1F8B2CBA
:10214000912CBB2009F461C05401EFEFAE1ABE0A16
:10215000AA0DBB1DFA161B0619F014F04F2D4A1BD1
:10216000511188C0E3FC59C07601A42FB0E2A1113F
:102170004FC0C40ED11C992309F45BC040E0D601C6
:102180001196F60190836D01552309F448C0012F83
:10219000060F9A81582F507184FF03C0913309F4C0
:1021A000015010160CF047C0093008F008E0EEE2CC
:1021B000FE2E5B01A01AB1088501919481949108CB
:1021C0002F3F320729F4D601FC92F60131966F01B8
:1021D0006217730794F1021713077CF5DB01A21B4A
:1021E000B30BAA24A394B12CAC0EBD1EAA0DBB1D2B
:1021F00011968C9121503109D60111962815390577
:10220000F4F0F60180836D01DBCFB12CA12CA0CFBF
:10221000F701B1937F01A150AACF9111B0CFD601A0
:10222000942F50E302C05D9391509111FCCFC40EE6
:10223000D11C40E0ACCF01E0BACF80E3DBCF621726
:10224000730731F4963388F4953311F4552369F00C
:10225000F6018083FD01842F90E2811108C0A40F54
:10226000B11D1C9290E080E002CF81E3F1CF919309
:102270008150F3CF911183CF8ACF283008F027E027
:102280003327DA01990F311D87FD916000966105B2
:10229000710539F432602E5F3D9330E32A95E1F702
:1022A00008959F3F30F080387105610509F03C5F6B
:1022B0003C5F3D93913008F08068911DDF93CF9390
:1022C0001F930F93FF92EF92192F987F9695E92F06
:1022D00096959695E90FFF27EC5BFE4F99273327DC
:1022E000EE24FF24A701E70105900894079428F441
:1022F000360FE71EF81E491F511D660F771F881FF6
:10230000991F0694A1F70590079428F4E70EF81E8C
:10231000491F561FC11D770F881F991F661F0694FE
:10232000A1F70590079428F4F80E491F561FC71F00
:10233000D11D880F991F661F771F0694A1F705907E
:10234000079420F4490F561FC71FD81F990F661F07
:10235000771F881F0694A9F784911095177041F094
:10236000D695C79557954795F794E7941A95C1F771
:10237000EAEEF0E06894159015913591659195918C
:1023800005907FE27395E118F10A430B560BC90BD8
:10239000D009C0F7E10CF11E431F561FC91FD01D05
:1023A0007EF4703311F48A95E6CFE894015030F052
:1023B000080F0AF40027021708F4202F2395022F94
:1023C0007A3328F079E37D932A95E9F710C07D935D
:1023D0002A9589F6069497956795379517951794DA
:1023E000E118F10A430B560BC90BD00998F023955D
:1023F0007E9173957A3308F070E37C932013B8F7DD
:102400007E9170617D9330F0839571E37D9370E3ED
:102410002A95E1F71124EF90FF900F911F91CF9132
:10242000DF91992787FD90950895E89409C097FB5F
:102430003EF490958095709561957F4F8F4F9F4F9B
:102440009923A9F0F92F96E9BB279395F6958795DF
:1024500077956795B795F111F8CFFAF4BB0F11F4A2
:1024600060FF1BC06F5F7F4F8F4F9F4F16C0882349
:1024700011F096E911C0772321F09EE8872F762F7F
:1024800005C0662371F096E8862F70E060E02AF0C0
:102490009A95660F771F881FDAF7880F96958795AC
:1024A00097F908950E9465120C94D6120E94C812E2
:1024B00038F00E94CF1220F0952311F00C94BF1237
:1024C0000C94C51211240C940A130E94E71270F3A5
:1024D000959FC1F3950F50E0551F629FF001729FC9
:1024E000BB27F00DB11D639FAA27F00DB11DAA1FD8
:1024F000649F6627B00DA11D661F829F2227B00D25
:10250000A11D621F739FB00DA11D621F839FA00DAF
:10251000611D221F749F3327A00D611D231F849FFF
:10252000600D211D822F762F6A2F11249F57504056
:102530009AF0F1F088234AF0EE0FFF1FBB1F661FD1
:10254000771F881F91505040A9F79E3F510580F09A
:102550000C94BF120C940A135F3FE4F3983ED4F33B
:10256000869577956795B795F795E7959F5FC1F73E
:10257000FE2B880F911D9695879597F9089597F9E9
:102580009F6780E870E060E008959FEF80EC089519
:1025900000240A9416161706180609060895002442
:1025A0000A9412161306140605060895092E0394BC
:1025B000000C11F4882352F0BB0F40F4BF2B11F430
:1025C00060FF04C06F5F7F4F8F4F9F4F089557FD8F
:1025D0009058440F551F59F05F3F71F04795880F91
:1025E00097FB991F61F09F3F79F087950895121628
:1025F00013061406551FF2CF4695F1DF08C01616D4
:1026000017061806991FF1CF869571056105089484
:102610000895E894BB2766277727CB0197F908959B
:10262000052E97FB1EF400940E94271357FD07D038
:102630000E94661307FC03D04EF40C9427135095A8
:102640004095309521953F4F4F4F5F4F089590959E
:102650008095709561957F4F8F4F9F4F08952F9272
:102660003F924F925F926F927F928F929F92AF9222
:10267000BF92CF92DF92EF92FF920F931F93CF936F
:10268000DF93CDB7DEB7CA1BDB0B0FB6F894DEBF06
:102690000FBECDBF09942A88398848885F846E842C
:1026A0007D848C849B84AA84B984C884DF80EE8076
:1026B000FD800C811B81AA81B981CE0FD11D0FB67F
:1026C000F894DEBF0FBECDBFED010895A1E21A2E32
:1026D000AA1BBB1BFD010DC0AA1FBB1FEE1FFF1FC6
:1026E000A217B307E407F50720F0A21BB30BE40B16
:1026F000F50B661F771F881F991F1A9469F760955D
:102700007095809590959B01AC01BD01CF01089516
:10271000A29FB001B39FC001A39F700D811D112422
:10272000911DB29F700D811D1124911D0895505867
:10273000BB27AA270E94AF130C94D6120E94C8127E
:1027400038F00E94CF1220F039F49F3F19F426F49C
:102750000C94C5120EF4E095E7FB0C94BF12E92F20
:102760000E94E71258F3BA176207730784079507A8
:1027700020F079F4A6F50C9409130EF4E0950B2ED5
:10278000BA2FA02D0B01B90190010C01CA01A001C3
:102790001124FF27591B99F0593F50F4503E68F11E
:1027A0001A16F040A22F232F342F4427585FF3CF5F
:1027B000469537952795A795F0405395C9F77EF430
:1027C0001F16BA0B620B730B840BBAF09150A1F079
:1027D000FF0FBB1F661F771F881FC2F70EC0BA0FFF
:1027E000621F731F841F48F4879577956795B79587
:1027F000F7959E3F08F0B0CF9395880F08F0992782
:10280000EE0F9795879508950E9418140C94D61290
:102810000E94CF1258F00E94C81240F029F45F3F86
:1028200029F00C94BF1251110C940A130C94C51288
:102830000E94E71268F39923B1F3552391F3951B96
:10284000550BBB27AA2762177307840738F09F5FD1
:102850005F4F220F331F441FAA1FA9F335D00E2E3E
:102860003AF0E0E832D091505040E695001CCAF7AB
:102870002BD0FE2F29D0660F771F881FBB1F26176E
:1028800037074807AB07B0E809F0BB0B802DBF0145
:10289000FF2793585F4F3AF09E3F510578F00C9414
:1028A000BF120C940A135F3FE4F3983ED4F386956D
:1028B00077956795B795F7959F5FC9F7880F911D35
:1028C0009695879597F90895E1E0660F771F881F21
:1028D000BB1F621773078407BA0720F0621B730BD4
:1028E000840BBA0BEE1F88F7E09508950E947D14C3
:1028F0006894B1110C940A1308950E94EF1288F0A5
:102900009F5798F0B92F9927B751B0F0E1F0660FB3
:10291000771F881F991F1AF0BA95C9F714C0B130F4
:1029200091F00E940913B1E008950C940913672FE8
:10293000782F8827B85F39F0B93FCCF38695779523
:102940006795B395D9F73EF490958095709561950C
:102950007F4F8F4F9F4F0895FA01EE0FFF1F309664
:1029600021053105A1F16115710561F48038BFE3DE
:102970009B0749F168949038810561F08038BFEF7A
:102980009B0741F099234AF5FF3FE10531052105F9
:1029900019F1E8940894E795D901AA2329F4AB2FFB
:1029A000BE2FF85FD0F310C0FF5F70F4A695E0F77C
:1029B000F73950F019F0FF3A38F49F779F930DD014
:1029C0000F9007FC9058089546F00C94C51260E0F3
:1029D00070E080E89FE308954FE79F775F934F9300
:1029E0003F932F930E94A7152F913F914F915F9195
:1029F0000E9452120C94041529F416F00C94BF1284
:102A00000C9409130C94C5120E94EF12A8F3963887
:102A1000A0F707F80F92E8942BE33AEA48EB5FE758
:102A20000E9468120F920F920F924DB75EB70F92ED
:102A30000E94EF15E8E6F0E00E9436154F915F9195
:102A4000EF91FF91E595EE1FFF1F49F0FE57E068FB
:102A50004427EE0F441FFA95E1F74195550B0E946C
:102A600069150F9007FE0C945D150895DF93CF93C1
:102A70001F930F93FF92EF92DF927B018C0168947A
:102A800006C0DA2EEF010E946512FE01E894A591BE
:102A90002591359145915591A6F3EF010E94AF1311
:102AA000FE019701A801DA9469F7DF90EF90FF909B
:102AB0000F911F91CF91DF9108959B01AC0160E0D0
:102AC00070E080E89FE30C9404140C94BF120C9403
:102AD00023160E94EF12D8F39923C9F3940F511DC6
:102AE000A3F39150504094F059F0882332F0660FD0
:102AF000771F881F91505040C1F79E3F51052CF71A
:102B0000880F911D9695879597F908955F3FACF0D2
:102B1000983E9CF0BB27869577956795B79508F406
:102B2000B1609395C1F7BB0F58F711F460FFE8CF80
:102B30006F5F7F4F8F4F9F4FE3CF0C940A1316F0B8
:102B40000C9423160C94C51268940C94BF120E9426
:102B5000EF12A8F39923C1F3AEF3DF93CF931F9342
:102B60000F93FF92C92FDD2788232AF02197660F44
:102B7000771F881FDAF720E030E040E85FEB9FE343
:102B8000883920F0803E38F021968F770E94981384
:102B9000E0E9F0E004C00E949813EDEBF0E00E9441
:102BA00036158B01BE01EC01FB2E6F57710975952F
:102BB000771F880B990B0E94171228E132E741E337
:102BC0005FE30E946512AF2D9801AE01FF900F9157
:102BD0001F91CF91DF910E94AF130C94D612FA018E
:102BE000DC01AA0FBB1F9B01AC01BF5728F42227B1
:102BF00033274427507820C0B75190F4AB2F0024DE
:102C0000469537952795011CA395D2F3002071F0C6
:102C1000220F331F441FB395DAF30ED00C94971391
:102C200061307105A0E88A07B94630F49B01AC0118
:102C30006627772788279078309621F02083318384
:102C40004283538308959F3F31F0915020F487953C
:102C500077956795B795880F911D9695879597F904
:102C600008950E948813B7FF0895821B930B08955F
:102C7000EE0FFF1F0590F491E02D09940F931F9321
:102C8000CF93DF938230910510F482E090E0E091E1
:102C90006302F091640230E020E0B0E0A0E0309701
:102CA00099F42115310509F44AC0281B390B243049
:102CB0003105D8F58A819B816115710589F1FB0188
:102CC00093838283FE0111C040815181028113816F
:102CD00048175907E0F04817590799F4109761F021
:102CE00012960C93129713961C933296CF01DF9194
:102CF000CF911F910F910895009363021093640286
:102D0000F4CF2115310551F04217530738F0A901CE
:102D1000DB019A01BD01DF01F801C1CFEF01F9CF5D
:102D20009093640280936302CDCFFE01E20FF31F04
:102D3000819391932250310939832883D7CF2091F1
:102D4000610230916202232B41F420910201309103
:102D500003013093620220936102209100013091BF
:102D600001012115310541F42DB73EB74091040111
:102D700050910501241B350BE0916102F091620234
:102D8000E217F307A0F42E1B3F0B2817390778F042
:102D9000AC014E5F5F4F2417350748F04E0F5F1FA1
:102DA0005093620240936102819391939FCFF0E030
:102DB000E0E09CCFCF93DF930097E9F0FC013297DE
:102DC00013821282A0916302B0916402ED0130E09F
:102DD00020E01097A1F420813181820F931F209170
:102DE0006102309162022817390709F061C0F0933F
:102DF0006202E0936102DF91CF910895EA01CE175C
:102E0000DF07E8F54A815B819E0141155105B1F765
:102E1000E901FB83EA8349915991C40FD51FEC174F
:102E2000FD0761F4808191810296840F951FE9016D
:102E300099838883828193819B838A83F0E0E0E099
:102E400012968D919C9113970097B9F52D913C9115
:102E50001197CD010296820F931F2091610230914C
:102E600062022817390739F6309751F5109264023B
:102E700010926302B0936202A0936102BCCFD3832D
:102E8000C28340815181840F951FC817D90761F40F
:102E90004E5F5F4F88819981480F591F518340834E
:102EA0008A819B81938382832115310509F0B0CFFC
:102EB000F0936402E09363029ECFFD01DC01C0CF7A
:102EC00013821282D7CFB0E0A0E0E9E6F7E10C94DC
:102ED00031138C01009751F4CB010E943E168C01F6
:102EE000C801CDB7DEB7E0E10C944D13FC01E60F4D
:102EF000F71F9C0122503109E217F30708F49DC027
:102F0000D901CD91DC911197C617D70798F0C5303C
:102F1000D10530F3CE0104978617970708F3C61B37
:102F2000D70B2297C193D1936D937C93CF010E94CD
:102F3000DA16D6CF5B01AC1ABD0A4C018C0E9D1E71
:102F4000A0916302B0916402512C412CF12CE12C30
:102F5000109731F580916102909162028815990570
:102F600009F05CC04616570608F058C08091000171
:102F700090910101009741F48DB79EB740910401F3
:102F800050910501841B950BE817F90708F055C00F
:102F9000F0936202E0936102F90171836083A0CF34
:102FA0008D919C91119712966C90129713967C902C
:102FB0001397A815B90559F56C0142E0C40ED11C50
:102FC000CA14DB0420F1AC014A195B09DA0112963C
:102FD000159780F06282738251834083D9016D938B
:102FE0007C93E114F10471F0D7011396FC93EE93F6
:102FF000129776CF22968C0F9D1FF90191838083C3
:10300000F301EFCFF0936402E093630269CF4816B7
:10301000590608F42C017D01D3019ACFCB010E94FF
:103020003E167C01009749F0AE01B8010E942018BD
:10303000C8010E94DA16870153CF10E000E050CF9C
:10304000FB01DC0102C001900D9241505040D8F7C5
:103050000895FB01DC0101900D920020E1F7089535
:10306000FB01DC014150504048F001900D920020DE
:10307000C9F701C01D9241505040E0F7089511E09A
:10308000C0E2D1E004C0FE010E9438162196C13290
:08309000D107C9F7F894FFCF46
:103098000000650280000000000015046D03A20313
:1030A8006204D303B103C50300000000DB05250655
:1030B8000A062906D30800000000DB0527060A06D1
:1030C800AF064F090D0A002C004448543131004422
:1030D8004854313200444854323100444854323262
:0830E800004448543F00300091
:00000001FF
