:020000040000FA
:100000000C9462000C948A000C948A000C948A0070
:100010000C948A000C948A000C948A000C948A0038
:100020000C948A000C948A000C948A000C948A0028
:100030000C948A000C948A000C948A000C948A0018
:100040000C94BB020C948A000C9489020C946302F9
:100050000C948A000C948A000C948A000C948A00F8
:100060000C948A000C948A000000000024002700F1
:100070002A0000000000250028002B0000000000DE
:1000800023002600290004040404040404040202DA
:100090000202020203030303030301020408102007
:1000A0004080010204081020010204081020000012
:1000B0000008000201000003040700000000000027
:1000C00000006A0411241FBECFEFD8E0DEBFCDBF11
:1000D00011E0A0E0B1E0E4E8FCE002C005900D9280
:1000E000AA33B107D9F721E0AAE3B1E001C01D921C
:1000F000A03EB207E1F710E0C2E6D0E004C02197CD
:10010000FE010E943A06C136D107C9F70E944A0390
:100110000C9440060C940000AF92BF92CF92DF92F5
:10012000EF92FF920F931F93CF93DF936C017B01AC
:100130008B01040F151FEB015E01AE18BF08C0173D
:10014000D10759F06991D601ED91FC910190F081B0
:10015000E02DC6010995892B79F7C501DF91CF9173
:100160001F910F91FF90EF90DF90CF90BF90AF90D5
:100170000895FC01538D448D252F30E0842F90E0AD
:10018000821B930B541710F0CF9608950197089592
:10019000FC01918D828D981761F0A28DAE0FBF2F5B
:1001A000B11D5D968C91928D9F5F9F73928F90E0B1
:1001B00008958FEF9FEF0895FC01918D828D981720
:1001C00031F0828DE80FF11D858D90E008958FEF5D
:1001D0009FEF0895FC01918D228D892F90E0805C26
:1001E0009F4F821B91098F739927089583E491E0B3
:1001F0000E94EA0021E0892B09F420E0822F089573
:1002000080E090E0892B29F00E94F60081110C9487
:1002100000000895FC01A48DA80FB92FB11DA35AA9
:10022000BF4F2C91848D90E001968F739927848F16
:10023000A689B7892C93A089B1898C918370806439
:100240008C93938D848D981306C00288F389E02DDA
:1002500080818F7D80830895EF92FF920F931F938B
:10026000CF93DF93EC0181E0888F9B8D8C8D981369
:100270001AC0E889F989808185FF15C09FB7F89475
:10028000EE89FF896083E889F989808183708064C1
:1002900080839FBF81E090E0DF91CF911F910F910C
:1002A000FF90EF900895F62E0B8D10E00F5F1F4F1B
:1002B0000F731127E02E8C8D8E110CC00FB607FC2A
:1002C000FACFE889F989808185FFF5CFCE010E94B8
:1002D0000A01F1CFEB8DEC0FFD2FF11DE35AFF4F1B
:1002E000F0829FB7F8940B8FEA89FB898081806246
:1002F000CFCFCF93DF93EC01888D8823B9F0AA8903
:10030000BB89E889F9898C9185FD03C0808186FDD0
:100310000DC00FB607FCF7CF8C9185FFF2CF80811F
:1003200085FFEDCFCE010E940A01E9CFDF91CF9189
:100330000895833081F028F4813099F08230A9F05B
:1003400008958730A9F08830C9F08430B1F48091E5
:1003500080008F7D03C0809180008F778093800024
:10036000089584B58F7784BD089584B58F7DFBCFC4
:100370008091B0008F778093B00008958091B00095
:100380008F7DF9CF1F93CF93DF93282F30E0F901B2
:10039000E255FF4F8491F901E656FF4FD491F901E0
:1003A000EA57FF4FC491CC23A9F0162F81110E9468
:1003B0009901EC2FF0E0EE0FFF1FEE58FF4FA591D3
:1003C000B4918FB7F894EC91111108C0D095DE2349
:1003D000DC938FBFDF91CF911F910895DE2BF8CF73
:1003E000CF93DF9390E0FC01E656FF4F24918A57AC
:1003F0009F4FFC0184918823D1F090E0880F991FD2
:10040000FC01E859FF4FA591B491FC01EE58FF4F54
:10041000C591D49161110EC09FB7F8948C91E22FD1
:10042000E0958E238C932881E223E8839FBFDF91A0
:10043000CF9108958FB7F894EC91E22BEC938FBF96
:10044000F6CF3FB7F89480913F0190914001A09181
:100450004101B091420126B5A89B05C02F3F19F07C
:100460000196A11DB11D3FBFBA2FA92F982F882734
:10047000BC01CD01620F711D811D911D42E0660F0F
:10048000771F881F991F4A95D1F70895CF93DF935F
:10049000FC0101900020E9F73197AF01481B590B8F
:1004A000BC0183E491E00E948C00EC0142E050E04A
:1004B00062E171E083E491E00E948C008C0F9D1F4B
:1004C000DF91CF9108951F920F920FB60F921124D2
:1004D0002F933F934F935F936F937F938F939F934C
:1004E000AF93BF93EF93FF9383E491E00E940A01DF
:1004F000FF91EF91BF91AF919F918F917F916F91FC
:100500005F914F913F912F910F900FBE0F901F90D1
:1005100018951F920F920FB60F9211242F938F935D
:100520009F93EF93FF93E0915301F09154018081E9
:10053000E0915901F0915A0182FD1BC09081809198
:100540005C018F5F8F7320915D01821741F0E09114
:100550005C01F0E0ED5BFE4F958F80935C01FF91B5
:10056000EF919F918F912F910F900FBE0F901F9041
:1005700018958081F4CF1F920F920FB60F9211241D
:100580002F933F938F939F93AF93BF9380913B01A2
:1005900090913C01A0913D01B0913E0130913A0112
:1005A00023E0230F2D3758F50196A11DB11D20938F
:1005B0003A0180933B0190933C01A0933D01B0939D
:1005C0003E0180913F0190914001A0914101B09185
:1005D00042010196A11DB11D80933F0190934001FE
:1005E000A0934101B0934201BF91AF919F918F9130
:1005F0003F912F910F900FBE0F901F90189526E8F6
:10060000230F0296A11DB11DD2CFCF92DF92EF92A0
:10061000FF920F931F93E82FF92F05C00150110986
:100620002109310961F1908196239417B9F305C02E
:10063000015011092109310911F190819623941378
:10064000F7CFC12CD12CE12CF12C0AC08FEFC81AA6
:10065000D80AE80AF80A0C151D052E053F0579F0A1
:1006600080818623841791F36C2D7D2D8E2D9F2DF7
:100670001F910F91FF90EF90DF90CF90089560E071
:1006800070E080E090E01F910F91FF90EF90DF907D
:10069000CF900895789484B5826084BD84B58160DC
:1006A00084BD85B5826085BD85B5816085BD80913D
:1006B0006E00816080936E001092810080918100B5
:1006C00082608093810080918100816080938100AD
:1006D000809180008160809380008091B10084606F
:1006E0008093B1008091B00081608093B0008091D0
:1006F0007A00846080937A0080917A00826080938F
:100700007A0080917A00816080937A0080917A00EB
:10071000806880937A001092C100E0915301F091BB
:10072000540182E08083E0914F01F09150011082EA
:10073000E0915101F09152018FEC808310925B01A6
:10074000E0915701F091580186E08083E0915501D6
:10075000F0915601808180618083E0915501F09194
:100760005601808188608083E0915501F0915601A7
:10077000808180688083E0915501F09156018081ED
:100780008F7D808360E089E00E94F00161E08AE073
:100790000E94F00160E08BE00E94F00125EA222E29
:1007A00020E0322E31E9832E30E0932EC7EBD0E0EB
:1007B00043EAE42E40E0F42E5FE8C52E50E0D52E4B
:1007C00060E0A62E60E0B62E61E08AE00E94C201E1
:1007D0000E9421022B013C010E942102641975092B
:1007E00086099709683E734081059105A8F360E08A
:1007F0008AE00E94C201F1016491F4018491E82F22
:10080000F0E0EE0FFF1FE458FF4F8591949100E454
:1008100012E42FE030E0462F0E94050361157105B8
:100820008105910509F049C0072E000C880B990B32
:100830000E94AE052DEC3CEC48E652E40E94040513
:1008400020E030E040E85FE30E9498040E947605D3
:100850006333710524F485E191E00E944602FE01B4
:100860008491F7017490F6016490662061F1811122
:100870000E949901E62DF0E0EE0FFF1FE458FF4FB4
:10088000A591B4918C917822F1F087E291E00E94D9
:10089000460261E087E00E94C20160E086E00E94BB
:1008A000C201A114B10409F48FCF0E94F60088237D
:1008B00009F48ACF0E94000087CF6F5F7F4F8F4F70
:1008C0009F4F9F70B1CF61E086E00E94C20160E05F
:1008D00087E0E5CFE3E4F1E01382128288EE93E053
:1008E000A0E0B0E084839583A683B78384E091E0A1
:1008F0009183808385EC90E09587848784EC90E0F9
:100900009787868780EC90E0918B808B81EC90E0DC
:10091000938B828B82EC90E0958B848B86EC90E0BD
:10092000978B868B118E128E138E148E08955058CD
:10093000BB27AA270E94AF040C9400060E94F20570
:1009400038F00E94F90520F039F49F3F19F426F49D
:100950000C94EF050EF4E095E7FB0C94E905E92F04
:100960000E94110658F3BA176207730784079507A8
:1009700020F079F4A6F50C9433060EF4E0950B2ED6
:10098000BA2FA02D0B01B90190010C01CA01A001E1
:100990001124FF27591B99F0593F50F4503E68F13C
:1009A0001A16F040A22F232F342F4427585FF3CF7D
:1009B000469537952795A795F0405395C9F77EF44E
:1009C0001F16BA0B620B730B840BBAF09150A1F097
:1009D000FF0FBB1F661F771F881FC2F70EC0BA0F1D
:1009E000621F731F841F48F4879577956795B795A5
:1009F000F7959E3F08F0B0CF9395880F08F09927A0
:100A0000EE0F9795879508950E9418050C9400069F
:100A10000E94F90558F00E94F20540F029F45F3F6A
:100A200029F00C94E90551110C9434060C94EF054F
:100A30000E94110668F39923B1F3552391F3951B96
:100A4000550BBB27AA2762177307840738F09F5FEF
:100A50005F4F220F331F441FAA1FA9F335D00E2E5C
:100A60003AF0E0E832D091505040E695001CCAF7C9
:100A70002BD0FE2F29D0660F771F881FBB1F26178C
:100A800037074807AB07B0E809F0BB0B802DBF0163
:100A9000FF2793585F4F3AF09E3F510578F00C9432
:100AA000E9050C9434065F3FE4F3983ED4F3869551
:100AB00077956795B795F7959F5FC9F7880F911D53
:100AC0009695879597F90895E1E0660F771F881F3F
:100AD000BB1F621773078407BA0720F0621B730BF2
:100AE000840BBA0BEE1F88F7E09508950E947D05F0
:100AF0006894B1110C94340608950E94190688F088
:100B00009F5798F0B92F9927B751B0F0E1F0660FD1
:100B1000771F881F991F1AF0BA95C9F714C0B13012
:100B200091F00E943306B1E008950C943306672FCC
:100B3000782F8827B85F39F0B93FCCF38695779541
:100B40006795B395D9F73EF490958095709561952A
:100B50007F4F8F4F9F4F0895E89409C097FB3EF455
:100B600090958095709561957F4F8F4F9F4F9923FA
:100B7000A9F0F92F96E9BB279395F6958795779578
:100B80006795B795F111F8CFFAF4BB0F11F460FF38
:100B90001BC06F5F7F4F8F4F9F4F16C0882311F090
:100BA00096E911C0772321F09EE8872F762F05C0A4
:100BB000662371F096E8862F70E060E02AF09A953F
:100BC000660F771F881FDAF7880F9695879597F934
:100BD000089597F99F6780E870E060E008959FEFBF
:100BE00080EC089500240A941616170618060906C4
:100BF000089500240A941216130614060506089593
:100C0000092E0394000C11F4882352F0BB0F40F41A
:100C1000BF2B11F460FF04C06F5F7F4F8F4F9F4F5A
:100C2000089557FD9058440F551F59F05F3F71F0DC
:100C30004795880F97FB991F61F09F3F79F0879543
:100C40000895121613061406551FF2CF4695F1DFCC
:100C500008C0161617061806991FF1CF869571055C
:100C6000610508940895E894BB2766277727CB0190
:100C700097F90895EE0FFF1F0590F491E02D099468
:100C8000F894FFCF000000002C018C00B90079011E
:100C9000EA00C800DC000D0A002C50756572746112
:100CA00020416269657274612120002047617320D0
:0E0CB0004465746563746564205965732000A3
:107E0000112484B714BE81FFF0D085E080938100F7
:107E100082E08093C00088E18093C10086E0809377
:107E2000C20080E18093C4008EE0C9D0259A86E02C
:107E300020E33CEF91E0309385002093840096BBD3
:107E4000B09BFECF1D9AA8958150A9F7CC24DD24C4
:107E500088248394B5E0AB2EA1E19A2EF3E0BF2EE7
:107E6000A2D0813461F49FD0082FAFD0023811F036
:107E7000013811F484E001C083E08DD089C08234E0
:107E800011F484E103C0853419F485E0A6D080C0E4
:107E9000853579F488D0E82EFF2485D0082F10E0AE
:107EA000102F00270E291F29000F111F8ED06801E7
:107EB0006FC0863521F484E090D080E0DECF843638
:107EC00009F040C070D06FD0082F6DD080E0C81688
:107ED00080E7D80618F4F601B7BEE895C0E0D1E017
:107EE00062D089930C17E1F7F0E0CF16F0E7DF06D8
:107EF00018F0F601B7BEE89568D007B600FCFDCFD4
:107F0000A601A0E0B1E02C9130E011968C91119780
:107F100090E0982F8827822B932B1296FA010C0160
:107F200087BEE89511244E5F5F4FF1E0A038BF0790
:107F300051F7F601A7BEE89507B600FCFDCF97BE46
:107F4000E89526C08437B1F42ED02DD0F82E2BD052
:107F50003CD0F601EF2C8F010F5F1F4F84911BD097
:107F6000EA94F801C1F70894C11CD11CFA94CF0C13
:107F7000D11C0EC0853739F428D08EE10CD085E9AC
:107F80000AD08FE07ACF813511F488E018D01DD067
:107F900080E101D065CF982F8091C00085FFFCCF94
:107FA0009093C60008958091C00087FFFCCF809118
:107FB000C00084FD01C0A8958091C6000895E0E648
:107FC000F0E098E1908380830895EDDF803219F02E
:107FD00088E0F5DFFFCF84E1DECF1F93182FE3DFCA
:107FE0001150E9F7F2DF1F91089580E0E8DFEE27F6
:047FF000FF270994CA
:027FFE00040479
:00000001FF
