:020000040000FA
:100000000C9421010C9449010C9449010C94490170
:100010000C9449010C9449010C9449010C94490138
:100020000C9449010C9449010C9449010C94490128
:100030000C9449010C9449010C9449010C94490118
:100040000C947E0A0C9449010C944C0A0C94260AD8
:100050000C9449010C9449010C9449010C944901F8
:100060000C9449010C94490107634236B79BD8A709
:100070001A39685618AEBAAB558C1D3CB7CC5763CD
:10008000BD6DEDFD753EF6177231BF000000803F7B
:1000900008000000BE922449123EABAAAA2ABECD97
:1000A000CCCC4C3E00000080BEABAAAAAA3E000009
:1000B0000000BF000000803F000000000008417801
:1000C000D3BB4387D1133D190E3CC3BD4282AD2B38
:1000D0003E68EC8276BED98FE1A93E4C80EFFFBE30
:1000E00001C4FF7F3F000000000000407A10F35A77
:1000F00000A0724E18090010A5D4E80000E8764868
:10010000170000E40B54020000CA9A3B000000E113
:10011000F505000080969800000040420F000000A6
:10012000A08601000000102700000000E803000086
:1001300000006400000000000A0000000000010050
:10014000000000002C76D888DC674F0823DFC1DF71
:10015000AE59E1B1B796E5E3E453C63AE651997674
:1001600096E8E6C28426EB898C9B62ED407C6FFCAE
:10017000EFBC9C9F40F2BAA56FA5F490055A2AF7F0
:100180005C936B6CF9676DC11BFCE0E40D47FEF5F9
:1001900020E6B500D0ED902E030094357705008061
:1001A000841E080000204E0A000000C80C333333C0
:1001B000330F986E12831141EF8D2114893BE65560
:1001C00016CFFEE6DB18D1844B381BF77C1D901D43
:1001D000A4BBE424203284725E228100C9F124ECA5
:1001E000A1E53D2700000000240027002A000000B0
:1001F00000080002010000030407000000000000E6
:10020000000000000000230026002900000000007C
:10021000250028002B000404040404040404020242
:100220000202020203030303030301020408102075
:1002300040800102040810200102040810200D0B68
:100240001B1011241FBECFEFD8E0DEBFCDBF12E0E0
:10025000A0E0B1E0EEEAF1E302C005900D92A6390C
:10026000B107D9F723E0A6E9B2E001C01D92A33A95
:10027000B207E1F711E0C0E2D1E004C02197FE012E
:100280000E94BA16CF31D107C9F70E941A0C0C94FC
:10029000CA180C9400008F929F92AF92BF92CF9297
:1002A000DF92EF92FF92CF934B01AA24BB24C82D7B
:1002B000C52ED62EE72EFF24BC2DA42F2091470358
:1002C000222361F0829E40011124C92D2C9D6001E2
:1002D0001124BD2D249FF0011124AF2FE0914D0377
:1002E000E0904803F090490330914A03E31323C0A0
:1002F0009C01220F331F820F931F8E0D9F1DE091D3
:100300004A03E80FF92FF11DC083E0914B03E80F7A
:10031000F92FF11DB08320914C03820F911DFC0138
:10032000A083CF91FF90EF90DF90CF90BF90AF90E0
:100330009F908F900895880F991F880F991F8E0D99
:100340009F1D472F552766277727222349F030E046
:10035000249F7001259FF00C349FF00C11244F2D29
:10036000E80FF92FF11D4083CACF0895AF92BF92D5
:10037000CF92DF92EF92FF920F931F93CF93DF9371
:100380006C017B018B01040F151FEB015E01AE18A0
:10039000BF08C017D10759F06991D601ED91FC91C2
:1003A0000190F081E02DC6010995892B79F7C501EF
:1003B000DF91CF911F910F91FF90EF90DF90CF9041
:1003C000BF90AF900895FC01538D448D252F30E0F0
:1003D000842F90E0821B930B541710F0CF96089552
:1003E00001970895FC01918D828D981761F0A28D7F
:1003F000AE0FBF2FB11D5D968C91928D9F5F9F7345
:10040000928F90E008958FEF9FEF0895FC01918DFA
:10041000828D981731F0828DE80FF11D858D90E067
:1004200008958FEF9FEF0895FC01918D228D892F04
:1004300090E0805C9F4F821B91098F7399270895EC
:1004400082EA92E00E94140221E0892B09F420E064
:10045000822F089580E090E0892B29F00E942002ED
:1004600081110C9400000895FC01A48DA80FB92FF0
:10047000B11DA35ABF4F2C91848D90E001968F73CC
:100480009927848FA689B7892C93A089B1898C91EB
:10049000837080648C93938D848D981306C002883A
:1004A000F389E02D80818F7D80830895EF92FF9204
:1004B0000F931F93CF93DF93EC0181E0888F9B8D87
:1004C0008C8D98131AC0E889F989808185FF15C041
:1004D0009FB7F894EE89FF896083E889F989808164
:1004E0008370806480839FBF81E090E0DF91CF9133
:1004F0001F910F91FF90EF900895F62E0B8D10E055
:100500000F5F1F4F0F731127E02E8C8D8E110CC0C3
:100510000FB607FCFACFE889F989808185FFF5CF0E
:10052000CE010E943402F1CFEB8DEC0FFD2FF11DB7
:10053000E35AFF4FF0829FB7F8940B8FEA89FB894B
:1005400080818062CFCFCF93DF93EC01888D8823A9
:10055000B9F0AA89BB89E889F9898C9185FD03C026
:10056000808186FD0DC00FB607FCF7CF8C9185FF0B
:10057000F2CF808185FFEDCFCE010E943402E9CF1A
:10058000DF91CF910895833081F028F4813099F084
:100590008230A9F008958730A9F08830C9F08430FE
:1005A000B1F4809180008F7D03C0809180008F77AF
:1005B00080938000089584B58F7784BD089584B5B5
:1005C0008F7DFBCF8091B0008F778093B00008952E
:1005D0008091B0008F7DF9CF1F93CF93DF93282FA9
:1005E00030E0F901E251FE4F8491F901E65DFD4FE3
:1005F000D491F901EA5EFD4FC491CC23A9F0162FE6
:1006000081110E94C302EC2FF0E0EE0FFF1FE45FA8
:10061000FD4FA591B4918FB7F894EC91111108C0DA
:10062000D095DE23DC938FBFDF91CF911F9108958A
:10063000DE2BF8CFCF93DF9390E0FC01E65DFD4F1A
:1006400024918A5E9D4FFC0184918823C9F090E03B
:10065000880F991FFC01EC51FE4FA591B491FC014C
:10066000E45FFD4FC591D49161110DC09FB7F8941F
:100670008C91209582238C938881282328839FBF87
:10068000DF91CF910895623051F49FB7F8943C9177
:10069000822F809583238C93E8812E2BEFCF8FB709
:1006A000F894EC912E2B2C938FBFEACF3FB7F894A0
:1006B0008091970290919802A0919902B0919A022C
:1006C00026B5A89B05C02F3F19F00196A11DB11DAD
:1006D0003FBFBA2FA92F982F8827BC01CD01620FE9
:1006E000711D811D911D42E0660F771F881F991FA4
:1006F0004A95D1F708950F931F93CF93DF93CDB70A
:10070000DEB729970FB6F894DEBF0FBECDBF0E94AB
:10071000560300914E0310914F03209150033091E6
:100720005103601771078207930740F460934E03EB
:1007300070934F03809350039093510300914E03A5
:1007400010914F032091500330915103601B710BA6
:10075000820B930B6C32714081059105C0F2F894C5
:1007600080914303909144039A838983E0914803E5
:10077000F0914903DF0111968081898790913F03B1
:10078000E0915203F091530380915403992309F4AB
:1007900045C09081982B98879081809589238F837D
:1007A0008F818C8388E08B8358856F8149853B815D
:1007B0002C8189819A81508347FD252F3A9520838A
:1007C000262F39F0441F00C000006083000000C0E5
:1007D000F2CF38E04D9160830000019761F7F0930C
:1007E0005303E093520349873B832C839A83898385
:1007F00078940E94560360934E0370934F03809346
:1008000050039093510329960FB6F894DEBF0FBEA4
:10081000CDBFDF91CF911F910F9108959081982BBB
:1008200098879081809589238F838F818E8388E03C
:100830008D8358856F8149853D812E8189819A817B
:10084000508347FD252F00C000C0208300C000C09A
:1008500000C000C000C060830000262F3A9541F020
:10086000441F000000C000C000C000C000C0E8CFAE
:1008700038E04D9100C0608300C0019709F7F09304
:100880005303E093520349873D832E83AFCF8F926A
:100890009F92AF92BF92CF92DF92EF92FF926B0145
:1008A0007C010E9456034B015C01C114D104E10498
:1008B000F104B9F00E945603681979098A099B0965
:1008C000683E73408105910580F321E0C21AD1088A
:1008D000E108F10888EE880E83E0981EA11CB11C87
:1008E000E4CFFF90EF90DF90CF90BF90AF909F90BC
:1008F0008F900895FC0183898B3051F480E492E459
:10090000AFE0B0E0FB0184A395A3A6A3B7A308952D
:1009100080E894E8AEE1B0E0F5CFCF92DF92EF92BD
:10092000FF92CF93DF93DC011796CC911797D0E01D
:100930006111DC2F18962C91189730E0220F331F8D
:100940002E5F3D4F50E040E0F90185919491FC010C
:10095000F080BA0190E080E0EF2DEC23ED1310C0A1
:100960004F5F5F4F1D96CD90DD90ED90FC905097BE
:100970006C157D058E059F0538F36FEF7FEFCB017A
:10098000DF91CF91FF90EF90DF90CF9008958F92FD
:100990009F92AF92BF92CF92DF92EF92FF920F930E
:1009A0001F93CF93DF93CDB7DEB7C054D1400FB6BE
:1009B000F894DEBF0FBECDBF2FB7F89440919E02D2
:1009C00050919F026091A0027091A1022FBFFC0183
:1009D00001851285238534856A017B01C01AD10AFD
:1009E000E20AF30A97018601003D1740210531050F
:1009F000B0F4FC018189C05CDE4F0FB6F894DEBF15
:100A00000FBECDBFDF91CF911F910F91FF90EF905F
:100A1000DF90CF90BF90AF909F908F9008958C0102
:100A2000FC01418752876387748714821382128284
:100A30001182108262E085810E941A0361E070E0F9
:100A400080E090E00E94470461E0F80185810E9407
:100A50001A0360E0F80185810E94EC02F8018681AA
:100A60008551823028F58BE291E10197F1F762E040
:100A7000F80185810E941A03F801828990E0823092
:100A8000910538F0880F991F880F991F05970197D6
:100A9000F1F7F89460E0C8010E948D046F3F7F4F2A
:100AA0008F4F9F4F61F4F801118A789480E0A3CFB3
:100AB00064E170E080E090E00E944704D8CF61E0FC
:100AC000C8010E948D046F3F7F4F8F4F9F4F59F396
:100AD000CE0101967C015E019FEBA91A9EEFB90A37
:100AE000670160E0C8010E948D04F6016083718394
:100AF0008283938361E0C8010E948D04F6016483C0
:100B0000758386839783F8E0CF0ED11CCA14DB046B
:100B100041F7789430E020E0F70180809180A28056
:100B2000B3804481558166817781FFEF8F169F06E0
:100B3000AF06BF0631F04F3F8FEF580768077807C1
:100B400019F4F801118AB2CFF90183E0F595E79520
:100B50008A95E1F7E00FF11F8081880F84169506D2
:100B6000A606B706F0F080832F5F3F4FF8E0EF0E48
:100B7000F11C2832310581F6F80144812081818100
:100B8000280F3327331F8281280F311D8381820F65
:100B9000932F911D99274817190699F681E0818BAB
:100BA0002ACF8160E0CF0895CF92DF92EF92FF923B
:100BB000CF93DF936B017C01C1E2D0E0219780915C
:100BC000410390914203C817D90728F4B701A60141
:100BD000CE010E944B018091480390914903892BDB
:100BE00011F00E947B036EE170E080E090E00E94D3
:100BF0004704209719F7DF91CF91FF90EF90DF9096
:100C0000CF9008950895CF93DF93EC018881998167
:100C1000009711F00E945C17198218821D821C82B5
:100C20001B821A82DF91CF910895FC01808191810E
:100C3000009711F00C945C1708950C945C170C94B9
:100C40005C17CF92DF92EF92FF920F931F93CF9397
:100C5000DF93EB01FB01349620E2DF011D922A9520
:100C6000E9F744E250E060E070E0488359836A832A
:100C70007B83FC0145815681678170854C835D8350
:100C80006E837F834CE050E060E070E048875987D6
:100C90006A877B872FB7F89440919E0250919F02FC
:100CA0006091A0027091A1022FBF488B598B6A8B73
:100CB0007B8B03811481C8010E94C704882349F0FB
:100CC000F80186818B3028F08D3040F085518230DC
:100CD00070F160E070E080EC9FE71BC0618170E024
:100CE00090E080E00E9499122DEC3CEC4CEC5DE32E
:100CF0000E94D4126B017C01F801608170E090E0E9
:100D000080E00E9499129B01AC01C701B6010E94CC
:100D10001A146C8B7D8B8E8B9F8B81E0DF91CF9132
:100D20001F910F91FF90EF90DF90CF900895608119
:100D3000718176276727762790E080E00E949712DE
:100D40002DEC3CEC4CEC5DE30E94D412E2CF8F9290
:100D50009F92AF92BF92EF92FF921F93CF93DF9338
:100D6000EB01FB01349620E2DF011D922A95E9F7A1
:100D700044E250E060E070E0488359836A837B83FB
:100D8000FC0145815681678170854C835D836E834C
:100D90007F834DE050E060E070E0488759876A87C4
:100DA0007B872FB7F89440919E0250919F026091EB
:100DB000A0027091A1022FBF488B598B6A8B7B8B4D
:100DC000E380F480C7010E94C704882341F0F70143
:100DD00086818C3009F455C038F48B30E1F060E046
:100DE00070E080EC9FE73EC085518230C0F71281F1
:100DF000612F70E0762F662766277F778381682BC7
:100E000090E080E00E9497122DEC3CEC4CEC5DE30E
:100E10000E94D41251C0628170E090E080E00E9494
:100E200097124B015C01F701138117FF0AC0AC0157
:100E30009B0160E070E080E89FEB0E9419144B0179
:100E40005C011F70612F70E090E080E00E949912B9
:100E50002DEC3CEC4CEC5DE30E94D412A501940116
:100E60000E941A146C8B7D8B8E8B9F8B81E0DF919F
:100E7000CF911F91FF90EF90BF90AF909F908F9078
:100E800008951281612F70E090E080E00E94971237
:100E90004B015C01F70163816F7070E090E080E0CE
:100EA0000E9499122DEC3CEC4CEC5DE30E94D412B4
:100EB000A50194010E941A1417FFD4CF9058D2CFE5
:100EC000FC0101900020E9F73197AF01481B590B55
:100ED000BC0182EA92E00C94B60184E391E00C94A8
:100EE0006007CF93DF93FC0144815581608171815C
:100EF00082EA92E00E94B601EC010E946D078C0F1D
:100F00009D1FDF91CF910895CF93DF930E946007DB
:100F1000EC010E946D078C0F9D1FDF91CF9108950A
:100F2000FC0124813581232B49F067E371E0808146
:100F300091810E94AB1821E0892B09F020E0822FDB
:100F400008950F931F93462F90E0FC01E65DFD4F3F
:100F50006491FC01EA5EFD4FE4914111462FF0E0FF
:100F6000EE0FFF1FEE5FFD4F8591949100E412E4B8
:100F70002FE030E00E94C80A6115710581059105D6
:100F800029F06F5F7F4F8F4F9F4F9F701F910F9181
:100F900008950F931F93CF93DF938C01EB01FC0116
:100FA000808191810097E1F06881798161157105F7
:100FB000A9F0428153812C813D814217530770F083
:100FC0000E94B4188C819D81F801958384831D82D1
:100FD0001C82DF91CF911F910F9108950E945C17A1
:100FE00088819981F801918380838A819B81938391
:100FF00082838C819D8195838483198218821B82D0
:101000001A82E5CF0F931F93CF93DF93EC01888172
:101010009981009759F02A813B812617370730F0D4
:1010200081E0DF91CF911F910F9108958B016F5F48
:101030007F4F0E94E517009759F0998388831B839F
:101040000A832C813D81232B59F7FC011082E8CFC4
:1010500080E0E7CFEF92FF920F931F93CF93DF9340
:101060008C017B01EB0109900020E9F72197C61B59
:10107000D70BBE010E940208811109C0C801DF918F
:10108000CF911F910F91FF90EF900C940306F80100
:10109000D583C483B70180819181DF91CF911F9166
:1010A0000F91FF90EF900C94B418EF92FF920F9372
:1010B0001F93CF93DF93CDB7DEB7A1970FB6F89408
:1010C000DEBF0FBECDBF7C01CB01BA01F70111829B
:1010D000108213821282158214828E010F5F1F4FBD
:1010E00022E044E00E944210009789F0BC01C70151
:1010F0000E942A08A1960FB6F894DEBF0FBECDBF9E
:10110000DF91CF911F910F91FF90EF900895C7014C
:101110000E940306EFCFEF92FF920F931F93CF939E
:10112000DF93EC01FB01E080F180E114F10411F1A7
:101130000481158101151105A9F08C819D81080F8D
:10114000191FB801CE010E940208882399F0288156
:1011500039818C819D81B701820F931F0E94B41841
:101160001D830C83CE01DF91CF911F910F91FF90D2
:10117000EF900895CE010E940306F4CFEF92FF9204
:101180000F931F93CF93DF93EC017B011982188299
:101190001B821A821D821C82FB0101900020E9F74C
:1011A00031978F01061B170BB8010E9402088111AD
:1011B00009C0CE01DF91CF911F910F91FF90EF9069
:1011C0000C9403061D830C83B70188819981DF91FC
:1011D000CF911F910F91FF90EF900C94B418CF9383
:1011E000DF93EB01FC0183894BE050E06FE371E09A
:1011F0008C30C1F058F44BE050E069E371E08B3083
:1012000089F04BE050E061E571E00CC04BE050E04C
:1012100065E471E0853131F04BE050E06BE471E062
:10122000863179F7CE010E94BB181B86DF91CF91E2
:1012300008950F931F93CF93DF938C01EB0188E206
:10124000DB011D928A95E9F7F801838194810E9460
:10125000EF0881E090E0A0E0B0E08C879D87AE874A
:10126000BF87F80185819681A781B085888B998B8E
:10127000AA8BBB8B8CE090E0A0E0B0E08C8B9D8BC8
:10128000AE8BBF8BBE01838194810E947A04D8010A
:101290001396ED91FC9183898C3009F441C078F468
:1012A0008B3009F1188E198E1A8E1B8E1C8E1D8E96
:1012B0001E8E1F8E18A219A21AA21BA22CC0855125
:1012C000823080F780E090E0A8ECB2E4888F998FBC
:1012D000AA8FBB8F1C8E1D8E1E8E1F8E8DEC9CECDC
:1012E000ACECBDE314C080E090E0A0EAB2E4888FEB
:1012F000998FAA8FBB8F80E090E0A0EAB1E48C8F39
:101300009D8FAE8FBF8F80E090E0A0EAB0E488A30D
:1013100099A3AAA3BBA3DF91CF911F910F91089529
:1013200080E090E0AEEBB2E4E2CF0F931F93CF9357
:10133000DF938C01EB0188E2DB011D928A95E9F7CE
:10134000F801838194810E94EF0881E090E0A0E0A1
:10135000B0E08C879D87AE87BF87F8018581968135
:10136000A781B085888B998BAA8BBB8B8DE090E091
:10137000A0E0B0E08C8B9D8BAE8BBF8BBE018381D8
:1013800094810E947A04D8011396ED91FC9183898F
:101390008C3091F178F48B30B1F0188E198E1A8E52
:1013A0001B8E1C8E1D8E1E8E1F8E18A219A21AA2B5
:1013B0001BA21DC08531A9F1863179F780E090E04C
:1013C000AAEFB2E432C080E090E0A8E4B2E4888FF3
:1013D000998FAA8FBB8F1C8E1D8E1E8E1F8E80E054
:1013E00090E0A0E0B0E488A399A3AAA3BBA3DF91F7
:1013F000CF911F910F91089580E090E0A0E7B2E4B3
:10140000888F998FAA8FBB8F80E090E0A0EAB1EC23
:101410008C8F9D8FAE8FBF8F80E090E0A0E0BFE308
:10142000E2CF80E090E0A0EAB2E4888F998FAA8FA3
:10143000BB8F80E090E0A0E2B2EC8C8F9D8FAE8FEE
:10144000BF8F8DEC9CECACECBDE3CDCF1F920F9227
:101450000FB60F9211242F933F934F935F936F9387
:101460007F938F939F93AF93BF93EF93FF9382EA02
:1014700092E00E943402FF91EF91BF91AF919F9152
:101480008F917F916F915F914F913F912F910F902D
:101490000FBE0F901F9018951F920F920FB60F92CC
:1014A00011242F938F939F93EF93FF93E091B202B8
:1014B000F091B3028081E091B802F091B90282FD0F
:1014C0001BC090818091BB028F5F8F732091BC0203
:1014D000821741F0E091BB02F0E0EE55FD4F958F91
:1014E0008093BB02FF91EF919F918F912F910F906D
:1014F0000FBE0F901F9018958081F4CF1F920F920E
:101500000FB60F9211242F933F938F939F93AF9316
:10151000BF9380919E0290919F02A091A002B091F2
:10152000A1023091960223E0230F2D3758F5019642
:10153000A11DB11D2093960280939E0290939F025D
:10154000A093A002B093A10280919702909198027B
:10155000A0919902B0919A020196A11DB11D8093AC
:10156000970290939802A0939902B0939A02BF9128
:10157000AF919F918F913F912F910F900FBE0F9040
:101580001F90189526E8230F0296A11DB11DD2CFFA
:10159000CF92DF92EF92FF920F931F93E82FF92FD4
:1015A00005C0015011092109310961F1908196238B
:1015B0009417B9F305C0015011092109310911F13E
:1015C000908196239413F7CFC12CD12CE12CF12CD0
:1015D0000AC08FEFC81AD80AE80AF80A0C151D05C8
:1015E0002E053F0579F080818623841791F36C2DB9
:1015F0007D2D8E2D9F2D1F910F91FF90EF90DF90ED
:10160000CF90089560E070E080E090E01F910F912E
:10161000FF90EF90DF90CF9008951092A502109266
:10162000A40288EE93E0A0E0B0E08093A60290933D
:10163000A702A093A802B093A9028AE091E0909338
:10164000A3028093A20285EC90E09093AF02809376
:10165000AE0284EC90E09093B1028093B00280ECF3
:1016600090E09093B3028093B20281EC90E090936B
:10167000B5028093B40282EC90E09093B70280931D
:10168000B60286EC90E09093B9028093B802109273
:10169000BB021092BC021092BD021092BE0266E321
:1016A00071E089E993E00E94BE0866E371E083E996
:1016B00093E00E94BE0866E371E08DE893E00E942B
:1016C000BE0866E371E087E893E00E94BE0866E327
:1016D00071E081E893E00E94BE0866E371E08BE769
:1016E00093E00E94BE0825E533E08CE080935A0326
:1016F0008BE080935B03E6E3F2E0E491E0935C032C
:10170000E2E2F2E0E491E0935D0340E85EE360E052
:1017100070E040936203509363036093640370939B
:101720006503809368038AE291E090936A03809353
:10173000690330936D0320936C038FEF9FEFDC01FF
:1017400080936E0390936F03A0937003B093710323
:101750004CE151E05093730340937203309376034E
:10176000209375038093770390937803A093790374
:10177000B0937A03109240031092470310924E03E5
:1017800010924F03109250031092510381E0809306
:101790004D0380934A0310924B0392E090934C03C5
:1017A00080933F0380E690E090934403809343034B
:1017B0000E94C0169093490380934803009789F1D3
:1017C00020E6FC0111922A95E9F780E290E09093DF
:1017D00042038093410383E090E09093460380931B
:1017E000450380914003882341F061E083E00E943B
:1017F0001A0360E083E00E94EC02E9E1F2E0E49188
:10180000F0E0EE0FFF1FE45FFD4F85919491909300
:10181000530380935203EDE2F2E0E491E09354032A
:1018200008951092440310924303109242031092C1
:101830004103D1CFCF93DF93CDB7DEB7E1970FB69A
:10184000F894DEBF0FBECDBF789484B5826084BDAE
:1018500084B5816084BD85B5826085BD85B58160B4
:1018600085BD80916E00816080936E001092810032
:1018700080918100826080938100809181008160ED
:1018800080938100809180008160809380008091AE
:10189000B10084608093B1008091B000816080933A
:1018A000B00080917A00846080937A0080917A0001
:1018B000826080937A0080917A00816080937A00C0
:1018C00080917A00806880937A001092C100E09144
:1018D000B202F091B30282E08083E091AE02F09117
:1018E000AF021082E091B002F091B1028FEC8083E0
:1018F0001092BA02E091B602F091B70286E08083BE
:10190000E091B402F091B502808180618083E09122
:10191000B402F091B502808188608083E091B402C6
:10192000F091B502808180688083E091B402F091EB
:10193000B50280818F7D808362E080915A030E948E
:101940001A032FB7F89480919E0290919F02A09164
:10195000A002B091A1022FBF805D9740A109B109FB
:1019600080935E0390935F03A0936003B093610341
:1019700087E380936703809145039091460397FD29
:1019800008C061E00E941A0360E0809145030E9454
:10199000EC0281E08093400360E089E00E941A033A
:1019A00061E08AE00E941A0360E08BE00E941A0363
:1019B00061E084E00E941A0360E082E00E941A0362
:1019C00080916B038BA78AE291E09AA789A7809107
:1019D0006C0390916D039DA78CA780916E039091ED
:1019E0006F03A0917003B09171038EA79FA7A8AB5E
:1019F000B9ABBE016F5F7F4FCE0189960E949509FA
:101A0000809174038BA78CE191E09AA789A78091BC
:101A10007503909176039DA78CA780917703909191
:101A20007803A0917903B0917A038EA79FA7A8AB02
:101A3000B9ABBE016F5F7F4FCE0189960E94190935
:101A400044244A9443E0542E612C712C5CE1252EF1
:101A500051E0352E25E420937C0080917A0080644B
:101A600080937A0080917A0086FDFCCF8091780087
:101A7000A0917900BA2FA82F2FEF30E00E94B31663
:101A8000A30192010E949213F22EE32E022F132F34
:101A900010939D0200939C0261E088E00E941A036B
:101AA0000115110509F0DAC160E088E00E94EC023E
:101AB00080919C0290919D026DE371E0893C9105BB
:101AC00014F067E371E087E893E00E942A0861E080
:101AD0008AE00E94EC0261E070E080E090E00E9409
:101AE000470460E08AE00E94EC0261E08BE00E9423
:101AF000A107072E000C880B990B0E9499122DEC60
:101B00003CEC48E652E40E94861420E030E040E8D5
:101B10005FE30E941A140E94F814633371050CF0FD
:101B2000E8C16DE371E089E993E00E942A08E7EFDC
:101B3000F1E08491E3E3F2E00491EFE1F2E014914B
:101B4000112309F4D9C181110E94C302E12FF0E0F1
:101B5000EE0FFF1FEE5FFD4FA591B4918C9108230E
:101B600009F4CAC16DE371E083E993E00E942A0899
:101B700060E086E00E94EC0261E087E00E94EC02F7
:101B8000809174038BA73AA629A680917503909142
:101B900076039DA78CA78091770390917803A091FD
:101BA0007903B0917A038EA79FA7A8ABB9ABBE010A
:101BB0006F5F7F4FCE0189960E9421064D895E8915
:101BC0006F89788DCE0189960E945508BE01675DA8
:101BD0007F4F8BE793E00E94C907CE0189960E9450
:101BE000150680916B038BA78AE291E09AA789A7DB
:101BF00080916C0390916D039DA78CA780916E03DB
:101C000090916F03A0917003B09171038EA79FA76D
:101C1000A8ABB9ABBE016F5F7F4FCE0189960E9422
:101C2000A7064D895E896F89788DCE0189960E94BD
:101C30005508BE01675D7F4F81E893E00E94C907A8
:101C4000CE0189960E9415066AE070E080E090E07F
:101C50000E94470460E082E00E94A107072E000C6A
:101C6000880B990B0E94991220E030E04AE754E477
:101C70000E9486146B017C0120E030E040E450E4D7
:101C80000E942E152DEC3CEC4CE85FE30E94D41230
:101C90004B015C01A7019601C701B6010E94D41255
:101CA00023E333E343E750E40E94D4129B01AC01E9
:101CB000C501B4010E9419146B017C0120E030E0E1
:101CC00040EA50E40E9486144B015C0120E030E0C1
:101CD0004AEF53E4C701B6010E9486149B01AC0190
:101CE000C501B4010E941A144B015C0120E030E0F0
:101CF0004CE052E4C701B6010E9486149B01AC017E
:101D0000C501B4010E9419140E94F814683E734082
:101D10000CF0FEC06DE371E08DE893E00E942A08AC
:101D200061E084E00E94EC026AE070E080E090E014
:101D30000E94470486E591E00E9484078BEA91E0C7
:101D40000E9484070E946D0780EE91E00E94600768
:101D500083E993E00E949007882309F4E1C08BEFA8
:101D600091E00E9484078DE092E00E94600789E97B
:101D700093E00E949007882309F4D5C089E192E09E
:101D80000E94840789E292E00E94600787E893E05E
:101D90000E949007882309F4C9C083E392E00E945F
:101DA000840765E472E0CE0189960E94BE0861E86E
:101DB00073E0CE0189960E948B080E947107CE01C4
:101DC00089960E94150666E572E0CE0189960E940A
:101DD000BE086BE773E0CE0189960E948B080E94D3
:101DE0007107CE0189960E94150683E692E00E9453
:101DF00060078DE893E00E949007882309F499C05A
:101E00008BEF91E00E94840786E591E00E948407B1
:101E10000E946D070E946D070E946D0782EA92E0A2
:101E20000E941402181619060CF0F2C082EA92E021
:101E30000E94F20180939B02682F82EA92E00E9446
:101E400056020E946D0780919B02803309F074C096
:101E500060E070E0CB010E94D405E0CF0F3F110598
:101E600011F461E022CEE6EFF1E08491833029F1B4
:101E700040F48130C1F08230D9F0003811058CF780
:101E800013CE873031F1883061F18430B1F7809121
:101E900080008062809380008F2D9E2D90938B0018
:101EA00080938A0005CE84B5806884BDF7BC00CEDF
:101EB00084B5806284BDF8BCFBCD809180008068D1
:101EC000809380008F2D9E2D9093890080938800B1
:101ED000EFCD8091B00080688093B000F092B300A5
:101EE000E7CD8091B00080628093B000F092B400A2
:101EF000DFCD67E371E017CE67E371E083E993E03C
:101F00000E942A0861E086E00E94EC0260E035CE83
:101F100067E371E08DE893E00E942A0860E001CF5A
:101F200083E092E01ECF81E292E02ACF8BE392E041
:101F300036CF83E092E066CF813329F46FEF70E013
:101F400080E090E088CF823329F460E07FEF80E08A
:101F500090E081CF833329F460E070E08FEF90E070
:101F60007ACF843309F05ACF00E0B12CD12CC12CA8
:101F700010E0F12CE12C2EEF922E9B0C8824839400
:101F8000800EAA24AA94AB0C809141039091420345
:101F9000E816F90618F58C2D8E0D863598F0402F31
:101FA000410F50E070E060E0BA01552744278A2DC8
:101FB000811B582BC7010E944B01FFEFEF1AFF0A4C
:101FC0001D5FE2CF492D411B50E070E060E0BA0197
:101FD00055274427882D810F482BECCF809148034B
:101FE00090914903892B11F00E947B036EE170E010
:101FF00080E090E00E9447042FEFC21AD20A8DEFD2
:10200000B80E0D5FC11491E0D90609F0B1CF06CF2B
:1020100068EE73E080E090E00E944704E0E0F0E0CA
:10202000EF2B09F417CD0E942002882309F412CD6A
:102030000E9400000FCD80914803909149030E94B7
:102040005C17809145039091460397FD03C060E0C3
:102050000E941A038BE793E00E94150681E893E043
:102060000E94150687E893E00E9415068DE893E02C
:102070000E94150683E993E00E94150689E993E022
:102080000C941506EF920F931F93CF93DF93E80103
:1020900034E047FD34E1042E000C550B57FF03C01C
:1020A000519541955109E32E022F242FAE010E9434
:1020B0006010CE01DF91CF911F910F91EF900895A5
:1020C000A9E0B0E0E6E6F0E10C94B7136A01F22E65
:1020D000B02E102FFBE3AF2EA01608F41BE31F5FFA
:1020E000012F27E0AE014F5F5F4F0E94BF11BC017F
:1020F0008981982F9970913009F43FC09BE2E1FCEF
:1021000004C09E2D9170E0FC3AC05E2D5071E82F06
:10211000E87083FF46C084E0911101C083E0EF2D99
:10212000E81B8F1508F0E0E0D6018E2F20E2552342
:1021300051F1992329F0D6019C93C60101966C01B7
:1021400096012D5F3F4FE2FE24C08EE4D6018C93B2
:1021500091E411969C93119712968C93D9018E2F2E
:1021600090E281111BC0E20FF32FF11D10828EEF60
:102170009FEF2996ECE00C94D3139DE2C6CF90E23A
:10218000C4CF2D9381508111FCCFCE0ED11CE0E045
:10219000D0CF8EE6D6018C9391E6DBCF9D93815014
:1021A000E0CF482F447082FF3DC084E0911101C010
:1021B00083E08F1510F4EF2DE81BD6018E2F20E25F
:1021C000552309F1992329F0D6019C93C601019664
:1021D0006C0196012D5F3F4FE2FE1BC089E4D601E2
:1021E0008C938EE411968C93119786E412968C93BF
:1021F000D9018E2F90E2882309F4B5CF9D938150A9
:10220000FACF2D9381508111FCCFCE0ED11CE0E08E
:10221000D9CF89E6D6018C938EE611968C931197CF
:1022200086E6E4CF9B0177FF02C030E020E0A1E02A
:10223000B0E0911102C0B0E0A0E0F9013196AE0F1C
:10224000BF1F8B2C912CBB2009F461C05401EFEF10
:10225000AE1ABE0AAA0DBB1DFA161B0619F014F021
:102260004F2D4A1B511188C0E3FC59C07601A42FA1
:10227000B0E2A1114FC0C40ED11C992309F45BC078
:1022800040E0D6011196F60190836D01552309F4C3
:1022900048C0012F060F9A81582F507184FF03C048
:1022A000913309F4015010160CF047C0093008F0C2
:1022B00008E0EEE2FE2E5B01A01AB10885019194C0
:1022C000819491082F3F320729F4D601FC92F60140
:1022D00031966F016217730794F1021713077CF5AB
:1022E000DB01A21BB30BAA24A394B12CAC0EBD1E20
:1022F000AA0DBB1D11968C9121503109D601119662
:1023000028153905F4F0F60180836D01DBCFB12C7F
:10231000A12CA0CFF701B1937F01A150AACF9111B9
:10232000B0CFD601942F50E302C05D93915091112C
:10233000FCCFC40ED11C40E0ACCF01E0BACF80E3AB
:10234000DBCF6217730731F4963388F4953311F4B9
:10235000552369F0F6018083FD01842F90E28111FD
:1023600008C0A40FB11D1C9290E080E002CF81E371
:10237000F1CF91938150F3CF911183CF8ACF283041
:1023800008F027E03327DA01990F311D87FD9160AE
:1023900000966105710539F432602E5F3D9330E39C
:1023A0002A95E1F708959F3F30F080387105610567
:1023B00009F03C5F3C5F3D93913008F08068911DCF
:1023C000DF93CF931F930F93FF92EF92192F987F74
:1023D0009695E92F96959695E90FFF27EC5BFE4FB2
:1023E00099273327EE24FF24A701E70105900894DD
:1023F000079428F4360FE71EF81E491F511D660F7B
:10240000771F881F991F0694A1F70590079428F459
:10241000E70EF81E491F561FC11D770F881F991F11
:10242000661F0694A1F70590079428F4F80E491F3B
:10243000561FC71FD11D880F991F661F771F06944F
:10244000A1F70590079420F4490F561FC71FD81F06
:10245000990F661F771F881F0694A9F7849110951E
:10246000177041F0D695C79557954795F794E7941F
:102470001A95C1F7EAEEF0E0689415901591359140
:102480006591959105907FE27395E118F10A430BF0
:10249000560BC90BD009C0F7E10CF11E431F561FA4
:1024A000C91FD01D7EF4703311F48A95E6CFE894ED
:1024B000015030F0080F0AF40027021708F4202F0B
:1024C0002395022F7A3328F079E37D932A95E9F753
:1024D00010C07D932A9589F6069497956795379550
:1024E00017951794E118F10A430B560BC90BD00945
:1024F00098F023957E9173957A3308F070E37C937E
:102500002013B8F77E9170617D9330F0839571E36D
:102510007D9370E32A95E1F71124EF90FF900F91DE
:102520001F91CF91DF91992787FD90950895E894A9
:1025300009C097FB3EF490958095709561957F4F0B
:102540008F4F9F4F9923A9F0F92F96E9BB279395B9
:10255000F695879577956795B795F111F8CFFAF4C9
:10256000BB0F11F460FF1BC06F5F7F4F8F4F9F4FFA
:1025700016C0882311F096E911C0772321F09EE858
:10258000872F762F05C0662371F096E8862F70E0BE
:1025900060E02AF09A95660F771F881FDAF7880F98
:1025A0009695879597F908950E94E7120C94581311
:1025B0000E944A1338F00E94511320F0952311F025
:1025C0000C9441130C94471311240C948C130E9407
:1025D000691370F3959FC1F3950F50E0551F629FEB
:1025E000F001729FBB27F00DB11D639FAA27F00D6C
:1025F000B11DAA1F649F6627B00DA11D661F829F93
:102600002227B00DA11D621F739FB00DA11D621F77
:10261000839FA00D611D221F749F3327A00D611D94
:10262000231F849F600D211D822F762F6A2F112476
:102630009F5750409AF0F1F088234AF0EE0FFF1FA9
:10264000BB1F661F771F881F91505040A9F79E3F00
:10265000510580F00C9441130C948C135F3FE4F30C
:10266000983ED4F3869577956795B795F795E79556
:102670009F5FC1F7FE2B880F911D9695879597F95F
:10268000089597F99F6780E870E060E008959FEFF4
:1026900080EC089500240A941616170618060906F9
:1026A000089500240A9412161306140605060895C8
:1026B000092E0394000C11F4882352F0BB0F40F450
:1026C000BF2B11F460FF04C06F5F7F4F8F4F9F4F90
:1026D000089557FD9058440F551F59F05F3F71F012
:1026E0004795880F97FB991F61F09F3F79F0879579
:1026F0000895121613061406551FF2CF4695F1DF02
:1027000008C0161617061806991FF1CF8695710591
:10271000610508940895E894BB2766277727CB01C5
:1027200097F90895052E97FB1EF400940E94A913B3
:1027300057FD07D00E94E81307FC03D04EF40C9419
:10274000A91350954095309521953F4F4F4F5F4FBE
:10275000089590958095709561957F4F8F4F9F4F0D
:1027600008952F923F924F925F926F927F928F9235
:102770009F92AF92BF92CF92DF92EF92FF920F9310
:102780001F93CF93DF93CDB7DEB7CA1BDB0B0FB61A
:10279000F894DEBF0FBECDBF09942A8839884888D7
:1027A0005F846E847D848C849B84AA84B984C8846D
:1027B000DF80EE80FD800C811B81AA81B981CE0F64
:1027C000D11D0FB6F894DEBF0FBECDBFED01089549
:1027D000A1E21A2EAA1BBB1BFD010DC0AA1FBB1F25
:1027E000EE1FFF1FA217B307E407F50720F0A21B97
:1027F000B30BE40BF50B661F771F881F991F1A9404
:1028000069F760957095809590959B01AC01BD012D
:10281000CF010895A29FB001B39FC001A39F700D87
:10282000811D1124911DB29F700D811D1124911DD8
:1028300008955058BB27AA270E9431140C945813AE
:102840000E944A1338F00E94511320F039F49F3F40
:1028500019F426F40C9447130EF4E095E7FB0C945E
:102860004113E92F0E94691358F3BA1762077307DF
:102870008407950720F079F4A6F50C948B130EF4D9
:10288000E0950B2EBA2FA02D0B01B90190010C0180
:10289000CA01A0011124FF27591B99F0593F50F498
:1028A000503E68F11A16F040A22F232F342F4427F0
:1028B000585FF3CF469537952795A795F0405395E8
:1028C000C9F77EF41F16BA0B620B730B840BBAF0B8
:1028D0009150A1F0FF0FBB1F661F771F881FC2F723
:1028E0000EC0BA0F621F731F841F48F48795779537
:1028F0006795B795F7959E3F08F0B0CF9395880FF1
:1029000008F09927EE0F9795879508950E949A14DD
:102910000C9458130E94511358F00E944A1340F02F
:1029200029F45F3F29F00C94411351110C948C133E
:102930000C9447130E94691368F39923B1F355234C
:1029400091F3951B550BBB27AA27621773078407C2
:1029500038F09F5F5F4F220F331F441FAA1FA9F358
:1029600035D00E2E3AF0E0E832D091505040E69546
:10297000001CCAF72BD0FE2F29D0660F771F881FA7
:10298000BB1F261737074807AB07B0E809F0BB0B9A
:10299000802DBF01FF2793585F4F3AF09E3F5105AE
:1029A00078F00C9441130C948C135F3FE4F3983E41
:1029B000D4F3869577956795B795F7959F5FC9F797
:1029C000880F911D9695879597F90895E1E0660F18
:1029D000771F881FBB1F621773078407BA0720F091
:1029E000621B730B840BBA0BEE1F88F7E0950895FA
:1029F0000E94FF146894B1110C948C1308950E94E6
:102A0000711388F09F5798F0B92F9927B751B0F0FC
:102A1000E1F0660F771F881F991F1AF0BA95C9F762
:102A200014C0B13091F00E948B13B1E008950C9462
:102A30008B13672F782F8827B85F39F0B93FCCF315
:102A4000869577956795B395D9F73EF490958095DF
:102A5000709561957F4F8F4F9F4F0895FA01EE0F4C
:102A6000FF1F309621053105A1F16115710561F453
:102A70008038BFE39B0749F168949038810561F085
:102A80008038BFEF9B0741F099234AF5FF3FE105EE
:102A90003105210519F1E8940894E795D901AA2395
:102AA00029F4AB2FBE2FF85FD0F310C0FF5F70F496
:102AB000A695E0F7F73950F019F0FF3A38F49F7710
:102AC0009F930DD00F9007FC9058089546F00C94FA
:102AD000471360E070E080E89FE308954FE79F7739
:102AE0005F934F933F932F930E9429162F913F910D
:102AF0004F915F910E94D4120C94861529F416F020
:102B00000C9441130C948B130C9447130E94711373
:102B1000A8F39638A0F707F80F92E8942BE33AEA67
:102B200048EB5FE70E94EA120F920F920F924DB7A7
:102B30005EB70F920E947116E8E6F0E00E94B815A9
:102B40004F915F91EF91FF91E595EE1FFF1F49F0C7
:102B5000FE57E0684427EE0F441FFA95E1F74195D0
:102B6000550B0E94EB150F9007FE0C94DF1508958E
:102B7000DF93CF931F930F93FF92EF92DF927B012E
:102B80008C01689406C0DA2EEF010E94E712FE0164
:102B9000E894A5912591359145915591A6F3EF01C2
:102BA0000E943114FE019701A801DA9469F7DF90C1
:102BB000EF90FF900F911F91CF91DF9108959B01AE
:102BC000AC0160E070E080E89FE30C9486140C9404
:102BD00041130C94A5160E947113D8F39923C9F3DD
:102BE000940F511DA3F39150504094F059F0882355
:102BF00032F0660F771F881F91505040C1F79E3FFB
:102C000051052CF7880F911D9695879597F9089592
:102C10005F3FACF0983E9CF0BB2786957795679513
:102C2000B79508F4B1609395C1F7BB0F58F711F44D
:102C300060FFE8CF6F5F7F4F8F4F9F4FE3CF0C94C4
:102C40008C1316F00C94A5160C94471368940C94EE
:102C500041130E947113A8F39923C1F3AEF3DF93DC
:102C6000CF931F930F93FF92C92FDD2788232AF05C
:102C70002197660F771F881FDAF720E030E040E8E1
:102C80005FEB9FE3883920F0803E38F021968F7704
:102C90000E941A14E0E9F0E004C00E941A14EDEB5F
:102CA000F0E00E94B8158B01BE01EC01FB2E6F57BE
:102CB00071097595771F880B990B0E94991228E16D
:102CC00032E741E35FE30E94E712AF2D9801AE01C6
:102CD000FF900F911F91CF91DF910E9431140C94BE
:102CE0005813FA01DC01AA0FBB1F9B01AC01BF57AF
:102CF00028F4222733274427507820C0B75190F476
:102D0000AB2F0024469537952795011CA395D2F348
:102D1000002071F0220F331F441FB395DAF30ED059
:102D20000C94191461307105A0E88A07B94630F493
:102D30009B01AC016627772788279078309621F091
:102D4000208331834283538308959F3F31F0915014
:102D500020F4879577956795B795880F911D96957F
:102D6000879597F908950E940A14B7FF0895821B6A
:102D7000930B0895EE0FFF1F0590F491E02D099439
:102D80000F931F93CF93DF938230910510F482E06D
:102D900090E0E091A103F091A20330E020E0B0E0E8
:102DA000A0E0309799F42115310509F44AC0281B99
:102DB000390B24303105D8F58A819B816115710565
:102DC00089F1FB0193838283FE0111C0408151810F
:102DD0000281138148175907E0F04817590799F401
:102DE000109761F012960C93129713961C933296DB
:102DF000CF01DF91CF911F910F9108950093A1030F
:102E00001093A203F4CF2115310551F04217530757
:102E100038F0A901DB019A01BD01DF01F801C1CF42
:102E2000EF01F9CF9093A2038093A103CDCFFE01D0
:102E3000E20FF31F81939193225031093983288344
:102E4000D7CF20919F033091A003232B41F42091F1
:102E50000201309103013093A00320939F0320913E
:102E60000001309101012115310541F42DB73EB724
:102E70004091040150910501241B350BE0919F0303
:102E8000F091A003E217F307A0F42E1B3F0B2817C5
:102E9000390778F0AC014E5F5F4F2417350748F0D3
:102EA0004E0F5F1F5093A00340939F038193919314
:102EB0009FCFF0E0E0E09CCFCF93DF930097E9F065
:102EC000FC01329713821282A091A103B091A20358
:102ED000ED0130E020E01097A1F420813181820FD4
:102EE000931F20919F033091A0032817390709F001
:102EF00061C0F093A003E0939F03DF91CF91089509
:102F0000EA01CE17DF07E8F54A815B819E01411592
:102F10005105B1F7E901FB83EA8349915991C40F47
:102F2000D51FEC17FD0761F4808191810296840F13
:102F3000951FE90199838883828193819B838A838A
:102F4000F0E0E0E012968D919C9113970097B9F50F
:102F50002D913C911197CD010296820F931F2091E4
:102F60009F033091A0032817390739F6309751F5A0
:102F70001092A2031092A103B093A003A0939F0309
:102F8000BCCFD383C28340815181840F951FC81762
:102F9000D90761F44E5F5F4F88819981480F591FAF
:102FA000518340838A819B819383828321153105DC
:102FB00009F0B0CFF093A203E093A1039ECFFD01EF
:102FC000DC01C0CF13821282D7CFB0E0A0E0EBEEDD
:102FD000F7E10C94B3138C01009751F4CB010E94DC
:102FE000C0168C01C801CDB7DEB7E0E10C94CF1359
:102FF000FC01E60FF71F9C0122503109E217F3078D
:1030000008F49DC0D901CD91DC911197C617D7075F
:1030100098F0C530D10530F3CE0104978617970795
:1030200008F3C61BD70B2297C193D1936D937C9362
:10303000CF010E945C17D6CF5B01AC1ABD0A4C01D0
:103040008C0E9D1EA091A103B091A203512C412C86
:10305000F12CE12C109731F580919F039091A00302
:103060008815990509F05CC04616570608F058C047
:103070008091000190910101009741F48DB79EB7B6
:103080004091040150910501841B950BE817F90745
:1030900008F055C0F093A003E0939F03F9017183FA
:1030A0006083A0CF8D919C91119712966C9012978E
:1030B00013967C901397A815B90559F56C0142E059
:1030C000C40ED11CCA14DB0420F1AC014A195B09FF
:1030D000DA011296159780F06282738251834083E1
:1030E000D9016D937C93E114F10471F0D70113962B
:1030F000FC93EE93129776CF22968C0F9D1FF901C9
:1031000091838083F301EFCFF093A203E093A103B7
:1031100069CF4816590608F42C017D01D3019ACFD6
:10312000CB010E94C0167C01009749F0AE01B801A6
:103130000E94A218C8010E945C17870153CF10E0BB
:1031400000E050CFFB01DC0102C001900D92415024
:103150005040D8F70895FB01DC018D910190801952
:103160000110D9F3990B0895FB01DC0101900D9238
:103170000020E1F70895FB01DC014150504048F088
:1031800001900D920020C9F701C01D92415050409E
:10319000E0F7089511E0C0E2D1E004C0FE010E9412
:1031A000BA162196C132D107C9F7F894FFCF0000B3
:1031B000A3038000000000005602B601E301A30251
:1031C0001402F201060200000000D3051D060206EB
:1031D0002106190900000000D3051F060206A706F4
:1031E00095090D0A003000444854313100444854D8
:1031F00031320044485432310044485432320044A1
:1032000048543F002D2D2D2D2D2D2D2D2D2D2D2DC7
:103210002D2D2D2D2D2D2D2D2D2D2D2D2D2D2D2DDE
:103220002D2D2D2D2D2D2D2D2D2D2D2D2D2D2D2DCE
:103230002D2D2D2D2D2D2D2D2D2D2D2D2D2D2D2DBE
:103240002D2D2D2D2D2D2D2D2D2D2D2D2D2D2D2DAE
:103250002D2D2D2D2D2D2D2D002020202020202026
:10326000202020202020202020202020202020205E
:103270002020202020202045737461646F20646525
:10328000206C6F732073656E736F726573002020FE
:1032900020416C61726D61206465206675676120F4
:1032A0006465206761733A20004170616761646101
:1032B00000456E63656E646964610020202050756E
:1032C000657274613A200043657272616461004105
:1032D00062696572746100202020466F636F3A2036
:1032E000004170616761646F00456E63656E64697B
:1032F000646F0020202054656D7065726174757272
:10330000613A200020202048756D656461643A2090
:1033100000202020416C61726D6120646520506145
:1033200072746963756C61732066696E6173207075
:103330006F72206C6974726F20287063732F4C2930
:043340003A2000002F
:107E0000112484B714BE81FFF0D085E080938100F7
:107E100082E08093C00088E18093C10086E0809377
:107E2000C20080E18093C4008EE0C9D0259A86E02C
:107E300020E33CEF91E0309385002093840096BBD3
:107E4000B09BFECF1D9AA8958150A9F7CC24DD24C4
:107E500088248394B5E0AB2EA1E19A2EF3E0BF2EE7
:107E6000A2D0813461F49FD0082FAFD0023811F036
:107E7000013811F484E001C083E08DD089C08234E0
:107E800011F484E103C0853419F485E0A6D080C0E4
:107E9000853579F488D0E82EFF2485D0082F10E0AE
:107EA000102F00270E291F29000F111F8ED06801E7
:107EB0006FC0863521F484E090D080E0DECF843638
:107EC00009F040C070D06FD0082F6DD080E0C81688
:107ED00080E7D80618F4F601B7BEE895C0E0D1E017
:107EE00062D089930C17E1F7F0E0CF16F0E7DF06D8
:107EF00018F0F601B7BEE89568D007B600FCFDCFD4
:107F0000A601A0E0B1E02C9130E011968C91119780
:107F100090E0982F8827822B932B1296FA010C0160
:107F200087BEE89511244E5F5F4FF1E0A038BF0790
:107F300051F7F601A7BEE89507B600FCFDCF97BE46
:107F4000E89526C08437B1F42ED02DD0F82E2BD052
:107F50003CD0F601EF2C8F010F5F1F4F84911BD097
:107F6000EA94F801C1F70894C11CD11CFA94CF0C13
:107F7000D11C0EC0853739F428D08EE10CD085E9AC
:107F80000AD08FE07ACF813511F488E018D01DD067
:107F900080E101D065CF982F8091C00085FFFCCF94
:107FA0009093C60008958091C00087FFFCCF809118
:107FB000C00084FD01C0A8958091C6000895E0E648
:107FC000F0E098E1908380830895EDDF803219F02E
:107FD00088E0F5DFFFCF84E1DECF1F93182FE3DFCA
:107FE0001150E9F7F2DF1F91089580E0E8DFEE27F6
:047FF000FF270994CA
:027FFE00040479
:00000001FF
